:020000040800F2
:100000000000042039020008250400082904000823
:100010008902000889020008890200088902000894
:100020000000000000000000000000002D04000897
:1000300031040008000000003504000889020008AF
:100040008902000889020008890200088902000864
:100050008902000889020008890200088902000854
:100060008902000889020008890200088902000844
:100070008902000889020008890200088902000834
:100080008902000889020008890200088902000824
:100090008902000889020008890200088902000814
:1000A0008902000889020008890200088902000804
:1000B00089020008890200088902000889020008F4
:1000C00089020008890200088902000889020008E4
:1000D00089020008890200088902000889020008D4
:1000E00089020008890200088902000889020008C4
:1000F00089020008890200088902000889020008B4
:1001000089020008890200088902000889020008A3
:100110008902000889020008890200088902000893
:100120008902000889020008890200088902000883
:100130008902000889020008890200088902000873
:100140008902000889020008890200088902000863
:100150008902000889020008890200088902000853
:100160008902000889020008890200088902000843
:100170008902000800000000890200080000000059
:100180008902000889020008890200088902000823
:100190008902000889020008890200088902000813
:1001A0008902000889020008890200088902000803
:1001B0008902000800000000890200088902000886
:1001C0008902000800000000890200088902000876
:1001D00089020008890200088902000889020008D3
:1001E00089020008890200088902000889020008C3
:0801F000000000000000000007
:1001F80010B5054C237833B9044B13B1044800E01B
:1002080000BF0123237010BD700000200000000013
:10021800784E010808B5034B1BB10349034800E0B9
:1002280000BF08BD0000000074000020784E0108DF
:10023800DFF834D000F090F9002103E00B4B5B5855
:10024800435004310A480B4B42189A42F6D30A4AE3
:1002580002E0002342F8043B084B9A42F9D313F01A
:10026800A3FE00F00FF8FEE70000042088800108D4
:10027800000000207000002070000020E000002036
:10028800FEE70000F0B599B000F0E2F906A84822B0
:10029800002113F045FF00231846CDE90133CDE9CD
:1002A8000333059300F058FB00B1FEE740204FF4FC
:1002B80080750224072304213722CDE9095006A8B6
:1002C800CDE914230694CDE91144CDE916441391E0
:1002D80000F0E4FB034600B1FEE70F25032201A866
:1002E8000521CDE903330593CDE9015200F0A4FFC0
:1002F80000B1FEE700F00CFB00B1FEE700F01AFBCE
:10030800064600B1FEE700F0E7F82649264813F054
:1003180059FC0546002839D02246314613F0BAFC6C
:100328000746B8B1214C284613F072FA206813F03A
:10033800CBFE20681E4A042100F05EF803461D4CDF
:1003480002461D4906A8236014F0B6F806A814F062
:1003580005F8FEE7284613F037FD0646013013F08E
:10036800ABFE124C3A4620603946284613F092FC00
:1003780032462B462068012113F07CFC06462846AD
:1003880013F04EFA20B923689855CCE7074CCDE70F
:100398000A4B12221B680121DB68094813F0F6FD9D
:1003A800C1E700BFA04E0108A44E0108900000203C
:1003B800C40000208C000020284F01080C000020F9
:1003C800144F01080B4B82B01A6E42F001021A66F4
:1003D8001A6E02F001020092009A9A6D42F0805261
:1003E8009A659B6D03F080530193019B02B000F066
:1003F800F7BA00BF0010024070B50026064C82B064
:1004080065682488134600940A46019601462846E2
:1004180012F0F2FD02B070BD94000020704700BFDA
:10042800FEE700BF704700BF704700BF704700BFBE
:1004380070B5161E07DD0C468D1900E000BF04F8E4
:10044800010BA542F9D1304670BD00BF70B5161E2C
:1004580007DD0C468D1914F8010B00E000BFAC4213
:10046800F9D1304670BD00BF4FF0FF30704700BF74
:100478004FF4005300204B60704700BF01207047C5
:10048800002070470EB44FF0FF3003B0704700BF34
:100498000D4910B50D4A0E4C0B68121B2BB11844B0
:1004A800904208D80860184610BD0A4C23461844E4
:1004B80090420C60F6D913F053F90C224FF0FF3339
:1004C8000260184610BD00BFA000002000000420F4
:1004D80000800000E000002030B51C4B89B0DA6CC9
:1004E80008B3012828D042F00102DA64DB6C03F07B
:1004F80001030293029B01230322154C154954F86A
:10050800204031F81050204603A9CDE90532CDE945
:10051800035300F019F920462946002200F0F2F9A9
:10052800002009B030BD42F00402DA64DB6C03F04D
:1005380004030093009BDEE742F00202DA64DB6CFE
:1005480003F002030193019BD5E700BF00100240AE
:10055800344F01082C4F0108034AD2F8883043F47D
:100568007003C2F88830704700ED00E0204B204946
:100578001A682048120754BFD3F894301B688A6859
:1005880058BFC3F3032302F00C0248BFC3F303139D
:10059800082A50F823300DD00C2A0DD0042A09D08F
:1005A800134A154892681549C2F30312825CD34076
:1005B8000B607047124BF3E7C868CA6800F0030184
:1005C80002390129C2F3031298BF0D4B0132B3FB64
:1005D800F2F30749CA68C968C2F3062203FB02F2AC
:1005E800C1F3416301335B00B2FBF3F3D8E700BF0B
:1005F80000100240504F0108404F01080000002041
:100608000024F40038B50F4B1B780BB9012038BD16
:100618004FF47A72B2FBF3F30B4A05461068B0FB4D
:10062800F3F000F079F804460028EFD1072DEDD853
:10063800024629464FF0FF3000F038F8034B2046B9
:100648001D6038BD040000200000002008000020C4
:1006580000B5042083B000F017F8FFF787FF0020EB
:10066800FFF7D0FF18B1012003B05DF804FB01903B
:10067800FFF7A8FE019803B05DF804FB014B18686A
:10068800704700BFD80000204FF6FF01064A00025D
:10069800D36800F4E0600B4043F0BF6343F40033D9
:1006A8000343D360704700BF00ED00E0184B30B43F
:1006B800DB68C3F30223C3F10705032D03F1030429
:1006C80028BF0325062C19D94FF0FF34043B9C4062
:1006D80022EA04044FF0FF32AA4021EA020101FA9B
:1006E80003F2224352010028D2B20ADB00F1604033
:1006F80000F5614080F8002330BC70470024234691
:10070800E8E7044B00F00F0003441A7630BC70474A
:1007180000ED00E0FCEC00E00138B0F1807F0DD284
:1007280030B4E02500220721054B064C586084F8B8
:100738002350104630BC9A601960704701207047FA
:1007480010E000E000ED00E02DE9F04FD1F800E006
:10075800BEF1000F77D088460026DFF8A491012368
:1007680003FA06FC1CEA0E0569D00323D8F8041026
:10077800770021F0100AD8F808200AF1FF34BB40AE
:10078800012C6FEA030302FA07F25ED9C4681C4021
:100798002243C260046801F003021C401346BB40B8
:1007A8002343CF0003604AD50F2226F0030404F147
:1007B800804404F53D3406F00303276EDB009A40BD
:1007C80027EA0202484FB84217D007F58067B842B7
:1007D80075D0464FB8426DD0454FB84279D0454F95
:1007E800B8427BD0444FB8426ED0444FB8420CBF99
:1007F8000627072707FA03F31A432266EA43D9F8BC
:100808008030CC0354BF13402B43C9F88030D9F84B
:1008180084308F0354BF13402B43C9F88430D9F870
:100828000030CC0254BF13402B43C9F80030D9F82C
:100838000430890254BF13402B43C9F804300136F1
:100848003EFA06F38BD1BDE8F08F8468BAF1020F47
:1008580004EA030BD8F80C4004FA07F444EA0B0442
:100868008460D0F804B0C1F300142BEA0C0C04FA2D
:1008780006F444EA0C044460C46804EA030442EA47
:100888000402C26086D14FF00F0B4FEAD60C00EB82
:100898008C0C06F00704DCF82020A4000BFA04FBFB
:1008A80022EA0B0AD8F81020A24042EA0A02CCF841
:1008B80020206FE7022707FA03F31A439DE7012771
:1008C80007FA03F31A4398E7052707FA03F31A43CD
:1008D80093E7032707FA03F31A438EE7042707FA77
:1008E80003F31A4389E700BF0000024200080242EE
:1008F800000C024200100242001402420018024298
:1009080000F402400AB9816270478161704700BFF4
:1009180007490B6813F0010306D10A6822F00402A4
:10092800104308601846704701231846704700BFF7
:1009380000040340034A0020136843F001031360D6
:10094800704700BF00040340024B186800F4C06001
:10095800704700BF007000401D4A1368116911F408
:10096800104F2ED0D16809042BD403F4C0638342FE
:100978002BD03223116810B421F4C0610843154C00
:100988001060216814484909A0FB0101C90903FB4B
:1009980001F312485169A0FB030348054FEAD3034A
:1009A80003F1010305D500E01BB15169013B49057D
:1009B800FAD4074B5B695B0505D400205DF8044B4E
:1009C8007047012070470320F8E70020704700BFF8
:1009D8000070004000000020C55A7C0ACDCCCCCC69
:1009E800024A936843F48043936070470070004064
:1009F800274A9368D26813F00C0308D00C2B38D020
:100A0800042B24483BD0082B18BF00207047204AED
:100A18001168090754BFD2F8942012681E4954BFC0
:100A2800C2F30322C2F3031251F8220003B30C2BC2
:100A38001DD11749CA68CB6802F00302C3F3031338
:100A4800022A03F1010301D0032A19D11148CA6807
:100A5800B0FBF3F0C2F3062300FB03F00C4BDB689A
:100A6800C3F3416301335B00B0FBF3F07047002030
:100A7800704702F00302012AC9D00020D9E7704765
:100A8800B0FBF3F0CB68C3F3062300FB03F0E5E704
:100A9800001002400024F400504F0108002800F024
:100AA800E2812DE9F041AF4A03689568D668DA0615
:100AB80084B0044605F00C0506F003062FD5002D7A
:100AC80000F057810C2D00F05181E369002B00F0F4
:100AD800B481A44B1A681F4642F001021A60FFF75E
:100AE800CDFD804606E0FFF7C9FDA0EB080002280F
:100AF80000F2B5813B689A07F5D53B6843F00803D7
:100B08003B603B68626A23F0F00313433B607B68F9
:100B1800226A23F47F4343EA02237B602368D807D1
:100B280000F1F6809F0724D5042D00F076810C2D66
:100B380000F07081E368002B00F0AD81894B1A68E2
:100B48001E4642F480721A60FFF798FD054605E0DC
:100B5800FFF794FD401B022800F281813368580595
:100B6800F6D57368226923F0FE4343EA0263736093
:100B780023681A0725D56369002B00F0A781A369AC
:100B8800784A002B40F09B81D2F8943023F0100370
:100B9800C2F89430734BD3F894201D4642F00102FA
:100BA800C3F89420FFF76AFD064605E0FFF766FDE7
:100BB800801B072800F25381D5F894309B07F5D5A0
:100BC80023685D0759D5674B9A6DD00000F16181A4
:100BD80001269A6D42F080529A659B6D03F080530E
:100BE8000193019B604B1A68D10540F16182A368AB
:100BF800DA0740F18181580740F11082594BD3F848
:100C0800902042F00402C3F89020D3F8902042F0DC
:100C18000102C3F89020FFF731FDDFF8488107464D
:100C280041F2883505E0FFF729FDC01BA84200F214
:100C38001681D8F890309907F5D5A368494D13F077
:100C4800800FD8F8903000F0958243F08003C8F800
:100C5800903041F2883805E0FFF710FDC01B404591
:100C680000F2FD80D5F890301A05F5D526B13D4A39
:100C7800936D23F08053936523689B0619D5A36A67
:100C8800002B00F0B481374BD3F898201D4642F072
:100C98000102C3F89820FFF7F1FC064605E0FFF7CC
:100CA800EDFC801B022800F2DA80D5F898309F0707
:100CB800F5D5E06A50B32B4B9A6802F00C020C2A67
:100CC80000F0C28102281A6800F0668222F0807261
:100CD8001A601A6812F0205F03D1DA6822F0030262
:100CE800DA60204AD368144623F0887323F48033EB
:100CF800D360FFF7C3FC054605E0FFF7BFFC401BC8
:100D0800022800F2AC8023689B01F6D4002072E030
:100D1800082D75D00C2D71D06368B3F5803F00F0B5
:100D2800A480B3F5A02F00F0FF810E4F3A6822F49B
:100D380080323A603A6822F480223A60002B40F010
:100D48009980FFF79BFC804606E0FFF797FCA0EB35
:100D58000800642800F283803B689B03F5D423686D
:100D6800E0E600BF0010024000700040012E7FF452
:100D7800ACAEB04B1B689B0739D4AE4BD4F824807B
:100D88001A68170756BFD3F894301B681B0903F07D
:100D9800F0039845A74F00F2EA803B6843F0080348
:100DA8003B603B6823F0F00343EA08033B607B6841
:100DB800226A23F47F4343EA02237B60002D00F07C
:100DC8008981FFF715FE9B4B9B4A9B689B49C3F3A0
:100DD8000313D35C9A4A20FA03F308681360FFF7F9
:100DE80011FC40B92368D8077FF59CAE90E7E3690A
:100DF800002BC2D1012004B0BDE8F081032E8BD1B5
:100E08008C4A126891037FF58DAE6268002A7FF4E0
:100E180089AEEFE7022E7FF48DAE864A126855053B
:100E280002D5E268002AE5D0824920694A6822F0A2
:100E3800FE4242EA00624A609BE67E4B1A68984688
:100E480022F001021A60FFF719FC0746D8F80030B3
:100E58009B07C7D5FFF712FCC01B0228F6D9032051
:100E680004B0BDE8F08101207047724A136843F46A
:100E780080331360FFF702FC6E4F804605E0FFF7F2
:100E8800FDFBA0EB08006428E9D83B689A03F6D577
:100E980065E70026A6E6674B1A681D4622F48072AD
:100EA8001A60FFF7EBFB064604E0FFF7E7FB801B41
:100EB8000228D4D82B685905F7D4236859E6D2F804
:100EC800943043F01003C2F8943063E6594BD3F8DA
:100ED80094201D4622F00102C3F89420FFF7CEFBB0
:100EE800064604E0FFF7CAFB801B0728B7D8D5F8E9
:100EF80094309F07F6D463E64E4DD5F8902022F043
:100F08000102C5F89020D5F8902022F00402C5F817
:100F18009020002B7FF47FAEFFF7B0FB41F28837BB
:100F2800804605E0FFF7AAFBA0EB0800B84296D878
:100F3800D5F890309807F5D4D5F8903019067FF594
:100F480095AED5F890303B4F23F08003C5F890302C
:100F580041F2883506E0FFF791FBA0EB0800A842B4
:100F68003FF67DAFD7F890301A05F4D47EE6BB6D16
:100F7800D8005BD4BB6D43F08053BB65BB6D03F0F9
:100F880080530293029BFFF7DFFCBB6D23F0805375
:100F9800BB6530F4007000F0BD80B8F1800F00F23E
:100FA8003D8100F03F81A8F17000B0FA80F040095F
:100FB800244A136823F00F0303431360136803F0F4
:100FC8000F0398427FF416AF1A4B1A6842F00802D2
:100FD8001A601A68616A22F0F0020A431A605A68B5
:100FE800216A22F47F4242EA01225A60E9E6114B63
:100FF800D3F898201D4622F00102C3F89820FFF785
:101008003DFB064605E0FFF739FB801B02283FF64B
:1010180026AFD5F898309807F5D44AE6054AD2F8AD
:10102800903043F00103C2F89030F4E5FFF78CFCF0
:10103800AFE700BF00100240404F01080800002041
:10104800000000200020024001283FF4D4AEDB68F5
:10105800226B03F0030191427FF4CCAE616B03F085
:10106800F0020139B2EB011F7FF4C4AEA16B03F4A7
:10107800FE42B2EB012F7FF4BDAEE16B03F0784284
:10108800B2EBC16F7FF4B6AE226C03F4C001520814
:10109800013AB1EB425F7FF4ADAE626C03F0C0631E
:1010A8005208013AB3EB426F14BF01200020A2E6B8
:1010B8001A681D4642F480721A60FFF7DFFA074685
:1010C8002B68DB053FF593ADFFF7D8FAC01B022864
:1010D800F6D9C4E6BB6DD9003CD5FFF735FC30F432
:1010E80000702ED0B8F1800F00F29A8000F09C803A
:1010F800A8F17000B0FA80F040094C4A136823F058
:101108000F0303431360136803F00F0398427FF43F
:1011180071AE56E6B8F1800F7FF64AAFB8F1A10F6D
:1011280034BF0120022043E703F18043A3F53C3399
:101138001A6842F480221A601A6842F480321A60EF
:1011480098E6B8F1800FD8D9B8F1A10F34BF0120C3
:101158000220D2E7BB6D43F08053BB65BB6D03F043
:1011680080530393039BFFF7EFFBBB6D23F0805382
:10117800BB65B4E723F08003C8F8903041F28838A3
:1011880005E0FFF77BFAC01B40453FF668AED5F88F
:1011980090301B05F5D469E522F080721A601D466F
:1011A800FFF76CFA064605E0FFF768FA801B02288D
:1011B8003FF655AE2B689901F6D4EA681C4B216BB3
:1011C8001340A26BE66B606B0B4343EA02230138C2
:1011D800D4E9101243EAC663490843EA0013013907
:1011E800520843EA4153013A43EA4263EB602B68F1
:1011F800104C43F080732B60EB6843F08073EB6016
:10120800FFF73CFA054605E0FFF738FA401B0228CD
:101218003FF625AE23689A01F6D577E50320C7E6A1
:1012280003206AE70220C3E6022066E700200240A6
:101238000C809F0100100240002800F0D580834AEE
:101248002DE9F843136803F00F038B420CD213689F
:1012580023F00F030B431360136803F00F038B4253
:1012680002D00120BDE8F88303680446DA070D467A
:101278006DD54268032A7AD0754B022A1B6800F0A4
:10128800B580002A40F0B6809E07EAD5FFF7B0FB8C
:10129800704B984200F2B2804FF0000862686C4EC2
:1012A80041F28839B36823F003031A43B260FFF7A9
:1012B800E5F9074605E0FFF7E1F9C01B484500F2EC
:1012C800A880B368626803F00C03B3EB820FF2D115
:1012D800236899073DD4B8F1800F03D1B26822F092
:1012E800F002B26059490A6802F00F02AA4209D90D
:1012F8000A6822F00F022A430A600A6802F00F0205
:10130800AA42AED15A0706D55149E0688A6822F444
:10131800E06202438A601B0707D54D4A216993683A
:1013280023F4605343EAC1039360FFF761FB484B22
:10133800494A9B684949C3F30313D35C484A20FAD6
:1013480003F313600868BDE8F843FFF75BB99F072C
:10135800C8D53F49A0688A6822F0F00202438A6033
:101368003A490A6802F00F02AA42C1D8CAE73849C6
:10137800086886017FF575AFC86800F0030001288A
:1013880055D00021324FFE68F86806F00306C0F316
:101398000310022E00F101003DD0032E3BD0B1FB1B
:1013A800F0F1F868C0F3062001FB00F1284E294F40
:1013B800F068C0F3416001304000B1FBF0F1B94280
:1013C80032D9B16811F0F00F05D013F002083FF4DC
:1013D80066AFA36843BB4FF08008B36823F0F003FF
:1013E80043EA0803B3605AE7012070479F033FF5BB
:1013F8004DAF36E758057FF534AF47E74FF0800823
:10140800134A936823F0F00343EA08039360626881
:1014180045E7032026E71349FE68B1FBF0F1C6F360
:10142800062001FB00F1C1E74FF0000837E7086824
:10143800000754BFD1F8941009680B4854BFC1F392
:101448000321C1F3031150F821109BE7002002404B
:101458000010024000B4C404404F010808000020F6
:10146800000000200024F400504F01082DE9F84343
:10147800089D0C46284453F8201053F825500B4675
:10148800A942B8BF2B46002B9046DDF8249037DDE3
:10149800B3FA83F3C3F11F039BB2A3F10D07002F27
:1014A80035DD3D4141FA07F72DB23FB2012005FB7A
:1014B800050007FB070008F0FDF9013000B2AD0395
:1014C800BE0395FBF0F596FBF0F6B9F1000F2DB2CF
:1014D80036B213DD04EB4909A9F10209A11EA8F1EE
:1014E800020838F8020F31F8023F10FB06F013FB30
:1014F800050389454FEAA3330B80F2D1BDE8F88391
:101508000D239D4001FA03F72DB23FB2CEE7C3F198
:101518000D03F6E72DE9F04F0446806895B0DDF835
:1015280080C08568D4F80CE00CFB0555866D7544C1
:1015380036F915701D462368D0F85C8008931E9B09
:10154800BCF1FF3F07931F9B08EB07060B93229BF9
:101558008B46BDF984A011460A9318F80720D4F8E1
:101568001480E76900F00A8116F8029009F10C0965
:10157800A94580F20381022940F300814FEA6109FD
:10158800079B4FEA49020E920CF1FF315A44012B96
:101598000C910F9203D10A9B63F35F030A930E9B8E
:1015A800016B5A1E079B31F91E60591C0C9B06EBF8
:1015B800C3064FEA660CACF1040C02FB0C5C4B1042
:1015C800BCF1000F0D93C0F24582B2F5807F40F365
:1015D8001383BCFBF2F2AE1BA6F11F019142D8BFE8
:1015E800A6F12002032A40F39781402AA8BF40228F
:1015F800C64902F0070031F91060D210C2F10E029C
:101608001641089B013626F00106002B40F0408267
:10161800384606F051FE079B1290012B40F31A83BF
:10162800711C384607F006F883030893B6F5807FE7
:1016380040F23A83089BB3FBF6F60896384606F064
:101648003BFE129BA0EB0308089BA5EB0805002BAB
:1016580000F07181B3F5804F00F055834FF480405E
:101668001E464FF480524FF68E5342F2550E811BA0
:10167800BDF9206009B201FB012106FB06264913CA
:1016880076130FFA81FC37B21CFB030217FB030326
:101698000EEBE2320EEBE33392B29BB20CFB02F29A
:1016A80007FB03F302440344D213DB13A2F5EF5202
:1016B800A3F5EF53033B033A17FB03071CFB020296
:1016C800C1F50043C6F5004606EBE73603EBE23208
:1016D80013B232B2B3FA83F7B2FA82F14FF2DB56A1
:1016E80041F6FC6C1291A7F1110E113903FA0EFEA6
:1016F80002FA01F109B20FFA8EFE10971EFB0607D7
:1017080011FB060613960CEBE736139FB6B20CEBEB
:10171800E73C0EFB06F61FFA8CFC01FB0CFC109F45
:1017280012990644CF1B03FB0A0302FB0A02FF02BD
:1017380007EBE637844409F1FF36A7EBEC3CF101EF
:1017480011FB0C0C43F3CF3742F3CF33079A1293B4
:10175800012A4FEAEC3340F30181089EC6F30D02DB
:10176800002A00F0FB80B6F5005F40F3DF820C9A98
:10177800C2F1040243FA02F29B1AEFE002F1010EF1
:101788004FEA6E0E16F80E0005F1FF3C6045B6BF35
:1017980070460020964600EB0E020132521016F8F1
:1017A8000290E145BCBF1046724600EB020E0EF1F6
:1017B800010E4FEA6E0E16F80E90CC45C4BF704667
:1017C800964600EB0E020132521016F80290CC45F4
:1017D800C4BF1046724602EB000E0EF1010E4FEA2E
:1017E8006E0E16F80E90CC45C4BF704696460EEBAA
:1017F80000020132521016F80290CC45C4BF1046C0
:10180800724616F802E09146AEEB0C0E80BB7545A9
:1018180034DC676847B30127079B0A9A9F407B1E01
:1018280012EA030765D00B9A002A00F058820029B3
:1018380015DD023AA36ADFF8DCC0354E02EB410E33
:10184800ABF102000CFB036313F4004F32F8025FA4
:1018580055D00435964520F8025FF3D1A362E36AB8
:10186800524658460AF0FEFA384615B0BDE8F08FE1
:10187800355CACEB050CF44540F3C982002AC8D0AE
:1018880016F80950206A0135401B002820620BDA3F
:10189800089B2844013A2062BBD0B55C0135401B47
:1018A80000282062F5DB0893072A06DD02F007000E
:1018B800D2100830013A00FA02F2089B73B1079B74
:1018C800E56A584664681E934346CDE91F7ACDE918
:1018D800214515B0BDE8F04F0AF0A8B8079B584657
:1018E8001E934346CDE91F7A15B0BDE8F04F0AF0C4
:1018F8001DBA4A005846394612F012FCB4E7043DB6
:10190800724520F8025F9DD1A8E700BFB04F0108DB
:101918005FF36E3C0D661900089B002B40F0278290
:10192800384606F0C9FC8046384606F0C5FCA0EBF0
:101938000808A5EB08054FF4804247F6FF7101231C
:1019480000271AFB012A0D9A089793400A9A013B2F
:101958001A404AF3CF331293BC4B0A92EB1A03EBAB
:10196800D3735E10AE42A8BF2E46206A0B9B26EAB0
:10197800E676A0EB0808AD1BC4F82080002B00F029
:1019880052810E9A1A440E92079B0D995B10079389
:101998000A9BAE4243FA01FA2CDB0493129B4A4697
:1019A80003930C9B204602930B9BCDE9001333460F
:1019B8005946FFF7AFFD236A8346A8EB0303F61ADF
:1019C800182E03DD089B0BB1183E35440C9BCDE95E
:1019D800037A02930E9B4A4601930D9B0F9900933D
:1019E80020462B46FFF796FD079B00FA03F747EAC8
:1019F8000B0739E70C9BCDE9037A02930E9B4A4605
:101A080001930D9B0F99009320462B46FFF782FD0B
:101A1800236A079AA8EB0308A5EB0805182D00FA16
:101A280002F705DD089BB3F5804F1CBF183D7619FA
:101A38000A9B4A460493129B594603930C9B2046E3
:101A480002930B9B01930D9B00933346FFF762FDB6
:101A5800074309E7B2F5807FCCF1000C00F3E5807D
:101A680051421140B1FA81F17948C1F1200122FABD
:101A780001FE50F82E0001392CFA01F1A1FB0001FA
:101A880002FB11CC944534BF0A464A1C5242A2E5D7
:101A9800E26A4B4600920F99002258460AF026FA4D
:101AA8008046384606F008FC06FB08F8A36B08F5E4
:101AB800005812904FEAA838002B00F0B980B8F10E
:101AC800000F40F33D814FEA8833B045089380F218
:101AD800B280B6F5807F40F27F81B3FBF6F24FF417
:101AE800805CC2F5804012B202FB02C24FF68E53F0
:101AF8004FEA623E4FF480414FF4804200B200FB4F
:101B080000C040131090BDF940C00FFA8EF010FBD2
:101B180003111CFB032242F2550303EBE23203EBF1
:101B2800E1334FF4804192B29BB20CFB02F200FB0E
:101B380003F302F5804203F58043D213DB13A2F5C9
:101B4800EF52A3F5EF53033A033B10FB03131CFBBF
:101B580002121098CEF5004EC0F5004000EBE232BC
:101B68000EEBE33E12B20FFA8EFEB2FA82F3BEFA21
:101B78008EF019461090113B02FA03F3109A4FF2B7
:101B8800DB5C113A0EFA02FE4FF480421BB213FBE3
:101B98000C2213924FF4804241F6FC600FFA8EFE3D
:101BA8001EFB0C2C139A00EBEC3C00EBE232109875
:101BB80092B203FB02F3421A4FF480411FFA8CFCE5
:101BC8000EFB0CFE03F58043D20202EBE3320EF566
:101BD800804E09F1FF33A2EBEE32DB0113FB021357
:101BE800DB13AB4200F3F4806A42934223DA4FF0EE
:101BF8000008CDF820801EE051421140B1FA81F171
:101C08001348C1F1200122FA01FE50F82E000139D3
:101C18002CFA01F1A1FB000102FB11CC944534BF61
:101C28000A464A1CD7E40E93AEE6BCFBF2F22DE757
:101C38004FEA88330893079B012B40F3888041467D
:101C4800721C384606F034FFF0E400BF00C0FFFF06
:101C58009C6401084FEA660808F1010202FB02F3DE
:101C6800384619461092089306F0A8FB109A089B6C
:101C780008FB02F8B0EB680F80F29480C0000130D6
:101C8800089307F09FFC01384FEA500808F1010259
:101C980002FB08F1089B49100A44384606F0D0FBBD
:101CA8004FEA88330893C1E473423340B3FA83F3AD
:101CB8005849C3F1200326FA03F05A1E51F8203080
:101CC800089921FA02F2A2FB0323CDE9082306FBB7
:101CD8001312099BB24228BF01331E46ADE4002906
:101CE8005EDDABF10202A06ADFF830C14A4F02EBB9
:101CF80041060CFB0070051522F8025F9642F8D1E8
:101D0800A0621F46ABE5194647F6FF7201231AFB8E
:101D1800021A0D9A4AF3CF379340013B93400A9A2F
:101D28001A400A9200220B46129217E60C994FEAC3
:101D3800C902C1F105010A41134403EAE3730DE640
:101D4800079B012B4FEA883308933FF778AF72104F
:101D5800531C904503FB03F317DC08F1010202FB57
:101D680008F149100A44384606F0A8FD5EE4E26A24
:101D78004B4600920F99002258460AF0B7F808908F
:101D8800384606F099FA129058E4721CB11CA2EB7E
:101D98000802A1EB080102FB01F1A3EB6101E1E7F5
:101DA8001F465CE5181AC0000738089307F00AFCBC
:101DB800721CC0EB42004FEA5008B11CA2EB0802AB
:101DC800A1EB080102FB01F1089BA3EB610163E7AA
:101DD800B303B04608932EE773423340B3FA83F354
:101DE8000C49C3F1200326FA03F05A1E51F820309B
:101DF800089921FA02F2A2FB0323CDE9102306FB7E
:101E08001312119BB24228BF01331A4667E60246F5
:101E1800814635E59C6401085FF36E3C0D66190048
:101E28002DE9F04F95B006AFBB6083698A467B62A7
:101E3800B7F9703001687B603B6E3861B3F5807F1D
:101E4800FA613962D7F8649040F2948113463A6E89
:101E5800B3FBF2F3FB609B46FB69012B00F0AA8100
:101E68007B6A002B40F348827B6F53B1B9F1000FB6
:101E780007D01846FB6949465A0012F02DF9D7F8E1
:101E88007490002345F6822BD646BB623B6A002B32
:101E980040F0E881B9F1000F4CD0FB6901221946E6
:101EA800BB6A41FA03FC02FA03F3002B3B634CFACA
:101EB80002FC3FDD0222BB6ABCF1000F02FA03FA02
:101EC80038DD4FEA4A03BB61022101224FF00008C6
:101ED800BB6AC7F814E001FA03FAD7F818E002FA67
:101EE80003F3C7F83490FB620024FD6A786B05EBB6
:101EF8000802018839F81230013413FB0BF611FB84
:101F08000BF399199B1B01F5804103F58043C91315
:101F1800DB1364450180554429F812307044E6D13A
:101F28007B6B08F1010802337B633B6B9845DBDB75
:101F3800D7F814E0BB6FBA6FAE4903F00F03121164
:101F4800CB5C8A5CB96A43EA8203BB677B6A01316E
:101F58008B42B9629AD1FB68F24619467B6A01FA4C
:101F680003FB0BF001027A633A6E42FA03F33B6318
:101F78007B6B002B40F0A5837B6A002B5ADA002389
:101F880045F682257B63C7F82CA0C7F864903B6AA6
:101F98004FEA6B0B002B40F033817B6E002B00F077
:101FA80025813B6B002B40F32281BBF1000F4FEAE8
:101FB800430A27DDD7F864804FEA830C4FF0000905
:101FC8004FEA4A0E404600260AEB08040388218897
:101FD80013FB05F311FB05F15A185B1A02F5804251
:101FE80003F580430136D213DB135E45028023805C
:101FF80070446444EAD13B6B09F10109994508F141
:102008000208DFDB3A6BBB6F1BF0010F03FA02F328
:10201800BA6FC7F830A042EA03027B6BBA6703F1D4
:1020280001037B6302D17A6AD342B0D4D7F82CA0DB
:10203800D7F864903B6B012B40F3BB813B6A002BC4
:1020480040F08081B9F1000F43D0BB6A3A6B4BFA7C
:1020580003FC02FA03F101FB0CF35B007B6208331B
:1020680023F00703C7F82CD0ADEB030D3B6E0DF141
:10207800180E012B40F0758201F18043023B0029C4
:102088004FEA830340F38482BCF1000F40F380825F
:102098004D46594E490001EB09081E442A4656F898
:1020A800043F03FB0CF30CEB03000EEB40000EEBBC
:1020B800430314880A4423F8024B9842F9D10235A5
:1020C800A845EBD17A6A7146484612F005F8D7F868
:1020D8002CD0BB6F514604937B680393BB6ECDE94C
:1020E80001933C6B00943D69BB68FA692846FFF789
:1020F80011FA6B687862002B74D0BB6AC7F82CD0D1
:102108004BFA03F504FA03F101FB05F94FEA490913
:1021180009F1080323F00703ADEB030D3B6E0DF146
:10212800180E012B40F0518201F1804CACF1020CE9
:1021380000294FEA8C0C40F35D82002D40F35A824F
:1021480076462D4B490001EB0E089C4432465CF85C
:10215800043F03FB05F3E8180AEB40000AEB4303CE
:1021680033F9024B984214800A44F9D10236B0453B
:10217800ECD13FE21A465B421340B3FA83F31F499E
:10218800C3F1200322FA03F05A1E51F82030F969EE
:1021980021FA02F2A2FB03453B6E03FB15122B4604
:1021A800396E914298BF0133FB609B46FB69012B56
:1021B8007FF456AE3A69D2E90703072B00F327826A
:1021C80053681BB14FF48043AAF80030FB6E002B14
:1021D80000F033820122BAF900307A62FA6E1B11DC
:1021E800786A13803C37BD46BDE8F08F3B6B4FEAF9
:1021F800430A07E7A04F0108BC4F01089C64010887
:102208003B6B002BF3DDBBF1000F4FEA430A7FF76E
:10221800F9AEFA6A4FEA830C964602EB0A08714651
:1022280000240AEB0E000B88068813FB05F316FB47
:1022380005F69A199B1B02F5804203F58043013489
:10224800D213DB135C450A80038061446044EAD101
:102258000EF1020EF045E2D17B6E002B3FF4D2AEB8
:102268009846ABE6FB691946BB6A41FA03FC0121B3
:1022780001FA03F2002A3A634CFA01FC7FF75AAEDE
:102288000222BCF1000F02FA03FA7FF753AE0AFAF2
:1022980001F3C7F864904FF000089946C7F834E096
:1022A800BB610024D7E90C5005EB080201883EF811
:1022B8001230013413FB0BF611FB0BF399199B1B1E
:1022C80001F5804103F58043C913DB13A445018060
:1022D80055442EF812304844E6D17B6B08F10108CA
:1022E80002337B633B6B4345DBD1D7F86490B9F18C
:1022F800000F7FF4E9AD1DE60BF001037B637B6FF4
:10230800002B00F0A681B9F1000F00F07B817B6BF8
:10231800002B40F045817B6A002B40F0C5813B6E65
:10232800012B43DDFB6949465A00786F11F0D4FE52
:102338007B6BD7F87490BB623B6E3B633B6A002BA8
:102348003FF480AEBB6A3A6B4BFA03F602FA03F12C
:1023580001FB06F35B007B62083323F00703C7F831
:102368002CD0ADEB030D3B6E0DF11808012B00F0DE
:102378007581002912DD002E10DD554643464900BF
:10238800760001EB0A0C2A46F41810880A4423F850
:10239800020B9C42F9D10235AC45F4D17A6A414628
:1023A800504611F099FED7F82CD04BE63B637B6B77
:1023B800BB62BB6F514604937B680393BB6ECDE948
:1023C80001933B6B00933C69BB68FA692046FFF7B1
:1023D800A1F863687862002B3FF404AF7B6B002B95
:1023E8004AD0002345F6822CC7F820B0D7F830B081
:1023F800FB62C7F818A03B6A796A4FEA6B0B5A0070
:1024080021FA0BF30B43BBF1000F3A627B624FEAF0
:10241800620E27DDBEF1000F4FEA4B0922DDBB69D2
:102428004FEA8B06984609EB030A4146002409EB5C
:1024380008000B88058813FB0CF315FB0CF55A19DB
:102448005B1B02F5804203F580430134D213DB1392
:10245800A6450A80038031443044EAD108F10208D5
:10246800C245E2D1FB6A7A6B01339342FB62C2D167
:10247800D7F818A0C7F830B0BB6A002B4BD00023A0
:1024880045F6822B3B62FB69786A19463B6A41FA3A
:1024980003FE012101FA03F2A449002A095CFA6249
:1024A80079624FEA6E0E2FDD0222BEF1000F02FAAA
:1024B80003F829DD4FF0000CC7F834A04FEA4809AB
:1024C8000024FD6A786B05EB0C0201883AF812309B
:1024D800013413FB0BF611FB0BF399199B1B01F548
:1024E800804103F58043C913DB13A64501804544A9
:1024F8002AF812304844E6D17B6B0CF1010C023308
:102508007B63FB6A6345DBD13B6ABA6A01339A4253
:102518003B62B8D113463C6B9C40FB6EB3B1FD697E
:10252800A80507F0C7F9002D00B20FDDFB6EAAF170
:10253800020202EB4505991E32F8023F13FB00F335
:1025480095424FEAE33321F8023FF5D101237A6A35
:10255800A340013B1A4010467A623C37BD46BDE8AD
:10256800F08F002914DDBCF1000F11DD4D467346D4
:1025780048004FEA4C0600EB090C2A46F41811886B
:10258800024423F8021B9C42F9D10235AC45F4D130
:102598007A6A7146484611F09FFDD7F82CD098E525
:1025A8003B6E012B40F39080FB6949465A00786FD7
:1025B80011F092FD3B6A002B40F0A0803A6E7B63DD
:1025C8003A63BB62D7F874903FE5002912DD002D0D
:1025D80010DD6E0053467546480000EB0E0C2A4687
:1025E800F41833F9021B9C4211800244F9D10235D8
:1025F800AC45F4D14A467146504611F06DFDD7F806
:102608002CD0EBE63B6EC7F828903B63B0E43B6AFE
:10261800D3B1BAF80040FA69E40B214606F098FAFB
:1026280039690B6A4A68083B0B62002A3FF4CEAD51
:10263800002C3FF4C7AD3E4BC6E5012318467B622C
:102648003C37BD46BDE8F08FF96906F013F904463A
:10265800E6E73B6E3B637B6FBB6289E401F1804C2C
:10266800ACF1020C00294FEA8C0C7FF797AE002ED4
:102678007FF794AE55462F4B490001EB0A0E9C4458
:102688002A465CF8043F03FB06F3F01808EB400009
:1026980008EB430314880A4423F8024B9842F9D103
:1026A8000235AE45ECD179E6FB6949465A007B6BA9
:1026B800786FBB6211F010FD3B6ED7F874903B63E6
:1026C8005DE400237B63B5E4BB6F514604937B68EC
:1026D8000393BB6ECDE901933B6E00933C69BB68E5
:1026E800FA692046FEF716FF63687862002B3FF40C
:1026F80079AD3B6E3B630023BB620CE700223B6E67
:10270800396E0BFB03F94FEA49037B62083323F068
:102718000703C7F82CD0ADEB030D7A630DF1180849
:10272800BA625E46D7F87490396324E6904F010880
:1027380000C0FFFFBC4F01082DE9F04F9A4603681F
:1027480091B0BAF1010F0446099193460893D0F865
:102758001C8000F0A781D0E9029319460A93D9F8A2
:102768003030BAF1020F33F91130416A02690D9124
:102778001D9903EBC1034FEA630000F048814FEA5B
:102788004A05691E1A9D043801FB005000280D46B1
:10279800C0F22B84B1F5807F064640F24081B0FB41
:1027A800F1F51A99CB1AA3F11F01A942D8BFA3F1D9
:1027B8002005032D40F34A81402DA8BF4025BE4B7C
:1027C80005F0070133F91170ED10C5F10E050A9BEC
:1027D80047FA05F56F1C934227F0010580F2368110
:1027E800089B002B40F02583404605F065FDBAF1B3
:1027F800020F0B9000F3DA84691C404605F01AFFBB
:102808000646B5F5807F4FEA863640F2FB82B6FB76
:10281800F5F5089B0C95002B00F0CD82002D00F0FB
:10282800B084BAF1000F17DD45F68227099BABF19A
:102838000206991E01EB4A0C31F8023F36F8022FC6
:1028480013FB07F012FB07F3C2181B1AD213DB1392
:102858008C450A803380EFD1404605F02DFD0B9B57
:10286800B5F5804FA0EB03001A9BA3EB00030A9376
:1028780000F0B0824FF4804C4FF480524FF68E53E4
:1028880042F25509ACEB050109B20FFA85FE01FBCE
:1028980001210EFB0E2E49134FEA6E3E0FB20FFABE
:1028A8008EF617FB03C216FB03C309EBE23209EBF2
:1028B800E33392B29BB207FB02F206FB03F36244D6
:1028C8006344D213DB13A2F5EF52A3F5EF53033A97
:1028D800033B16FB03C317FB02C2C1F50041CEF54B
:1028E800004601EBE23206EBE33617B236B2B7FA2E
:1028F80087F3B6FA86F24FF2DB5141F6FC6E0B9283
:10290800A3F11109113A07FA09F906FA02F20FFAC6
:1029180089F912B20D9319FB01C312FB01C10E9183
:102928000EEBE3310E9B89B20EEBE33E09FB01F19E
:102938001FFA8EFE02FB0EFE0D9B0B9A6144D31A02
:10294800DB0203EBE131E6440AF1FF33DB01A1EBE3
:10295800EE3E13FB0ECCBAF1020FB9464FEAEC3348
:102968000B96226A00F0D383002108910A99171A5E
:10297800CD1A05EBD5756D108D42A8BF0D46209B6D
:1029880025EAE5751B9AA1EB050813414545276221
:102998000A93C0F2058147F6FF73209A04930692C2
:1029A8001F9A2B4605921E9A099903921D9A204652
:1029B80002921C9A01921B9A00925246FFF730FA33
:1029C800236A0D90FF1AED1B182D03DD0C9B0BB12C
:1029D800183DA84400220A9B059206931D9B03926A
:1029E80002931B9B01920093CDF8109043465246E8
:1029F80059462046FFF714FA0D9B43EA000863681E
:102A0800002B40F00981404611B0BDE8F08F1A99BB
:102A1800A0F1100611EB460600F19F80554668426A
:102A28002840B0FA80F02549C0F1200025FA00F7C7
:102A380051F82710013826FA00F0A0FB010105FB28
:102A48001166B5428CBF0D464D1CAAE6089D002DA7
:102A580040F02082404605F02FFC07461A9B102BB9
:102A68006DDC00230893636B4046002B40F0C68260
:102A780005F022FC1A9BC01B1B1A0A93BAF1020F1D
:102A8800226A00F0C882012347F6FF764FF000095A
:102A98001B99CDE90B698B402099013B1940209186
:102AA800074B63E7151C18BF01251A461BBB0F46C9
:102AB800036A034E914616E0B04F01089C64010872
:102AC80000C0FFFF0121404605F0D4FE236A62687A
:102AD800083B236212B158B132463A80A9455F4695
:102AE8004EDA4FF00109072BECDC6268002AF5D0BA
:102AF8004FF48042F1E70E460027036ADFF890A3FF
:102B080008E0626812B14FF480423280BD425E46EE
:102B180036DD0127072BF4DDB6F9009001224FEAD4
:102B2800D971404606F014F8236A6268083B2362AC
:102B3800002AEBD0B9F1000FE5DA5246E5E7236A3F
:102B4800102B8EDD089B002B00F06B830222294698
:102B58004046089505F040FF85E7012000275546C7
:102B68007642C94926FA00F051F82710A0FB010166
:102B780005FB1166B5428CBF0D464D1C6D4210E633
:102B88001E9B002B00F0F2824FF001081A464046C7
:102B9800099BB3F900301B11138011B0BDE8F08F09
:102BA8001A46002306921D9ACDF8109002921B9A9D
:102BB8000593009203930193524643465946204693
:102BC800FFF72EF98146206A3F1AA8EB0708B8F1EB
:102BD800180F06DD0C9BB3F5804F1CBFA8F1180831
:102BE800454447F6FF72209B049206931F9B52466A
:102BF80005931E9B099903931D9B204602931C9BDA
:102C080001931B9B00932B46FFF70AF9636849EA77
:102C18000008002B3FF4F7AE0020BAF1000F014680
:102C28000FDD099BABF1020202EB4A079C1E32F949
:102C3800023F34F8025F974203FB030013FB0511C0
:102C4800F5D10B9B914D5B1003FB0302330481FB11
:102C580003408300D418AC4203DDD31AAB4200F31F
:102C6800E68209994FEA4A02584611F035FA089B5C
:102C7800002B3FF4C8AEBAF1000F7FF7C4AEBAF12B
:102C8800000F0AF1FF33D8BF00234FEA5B01C1F1FF
:102C9800000101F0030101F10302CCBF50460120FD
:102CA8009A4200F23883002900F06382BBF80030B2
:102CB8000129C3F10003ABF8003000F05A82BBF8D9
:102CC80002300329C3F10003ABF8023040F020833F
:102CD8008E46BBF804305B42ABF804300026431A3A
:102CE8000BEB410108934FEA9309A1F10805002075
:102CF800044655F8083F01366A685F42C2F1000C85
:102D0800C3F30F43C2F30F4252426CF30F0467F34D
:102D18000F005B4262F31F4463F31F40B145C1E9F2
:102D2800000401F10801E2D8089A22F00303934253
:102D38009E443FF468AE3BF81E300EF101025B4240
:102D480052452BF81E304FEA4E03BFF65CAE981C76
:102D58003BF800100EF10202494292452BF8001090
:102D68007FF751AE181D3BF800100EF103024942DF
:102D780092452BF800107FF746AE981D3BF80010DF
:102D88000EF10402494292452BF800107FF73BAE42
:102D980003F108013BF801200EF1050E5242F245FD
:102DA8002BF801207FF72FAE0A333BF8032052425D
:102DB8002BF8032027E6404605F07EFA0B9BC01A45
:102DC8001A9B1B1A0A93002D3FF458AEB5F5804F95
:102DD8007FF450AD01211B9B1B9A01FA03F3013BC1
:102DE8009340209ABAF1020F03EA0203226A00F024
:102DF80071820021209308912B460E460B9147F6CD
:102E0800FF79B3E56A422A40B2FA82F21E4BC2F158
:102E1800200225FA02F153F82130013A26FA02F28B
:102E2800A2FB032305FB1366B5428CBF1D465D1C40
:102E3800EFE4E26A5346009259460122099809F0E4
:102E480055F80646404605F037FA226B0B9005FB0D
:102E580006F3002A40F0478103F50056B613BAF18D
:102E6800020F40F339817F107A1C02EB4202B7420D
:102E780007EB0203C0F27F8106EB4601CA1C4046FD
:102E880005F01CFDBDE400BF9C6401082475020028
:102E980000C0FFFFE26A5346009259460122099892
:102EA80009F024F80546404605F006FAB5F5005F36
:102EB800074640F3A981636B0B93002B40F0A48174
:102EC800BAF1000F40F38F804FEA5B01494201F0ED
:102ED8000301CA1C0AF1FF339A4200F22682B9B1F3
:102EE800BBF800300129C3F10003ABF8003000F053
:102EF8001782BBF802300329C3F10003ABF8023094
:102F080040F01082BBF804300B915B42ABF8043000
:102F1800AAEB01030C939B08CDE90E844FF0000C3B
:102F28001C460BEB4101A1F108060020054656F8A6
:102F3800083F0CF1010C7268C3F1000EC2F10008E1
:102F4800C3F30F43C2F30F42524268F30F056EF307
:102F58000F005B4262F31F4563F31F40A445C1E9BC
:102F6800000501F10801E0D3DDE90E840C9A0B9904
:102F780022F003039342194435D03BF811204B1C2F
:102F880052429A452BF811204FEA41052BDDA81C27
:102F98003BF800105A1C494292452BF8001022DDDC
:102FA800281D3BF800109A1C494292452BF8001046
:102FB80019DDA81D3BF80010DA1C494292452BF890
:102FC800001010DD05F108013BF8012004335242DE
:102FD8009A452BF8012006DD05F10A023BF802307C
:102FE8005B422BF8023001250FE1B1F5807FC0F17B
:102FF800000640F27D81B6FBF1F5BFE505F05CF90E
:103008001A9BC01B1B1A0A930023BAF1020F0893DC
:10301800226A7FF438AD002747F6FF764FF6FF7334
:103028000125101ADDF824902062CDF82CB00C93FD
:1030380047F6FF72209B049206931F9B022205937A
:103048001E9B494603931D9B204602931C9B01939C
:103058001B9B00930A9BFEF7E3FEB9F802300C991C
:10306800626813FB01F30B9980460B80B9F80030B6
:1030780013FB05F54D80002A3FF4C5AC0998B0F95B
:103088000230B0F9002006FB02F206FB03F6D31368
:10309800F61303804680BBF90220BBF9003007FB1A
:1030A80003F307FB02F7DB13FF13ABF80030ABF8B1
:1030B80002700288D31A0380BBF80030BBF80210F4
:1030C8001A44ABF8002043885A1A4280BBF8022001
:1030D8001344ABF80230CAE56A1C3146404605F095
:1030E800E7FCFFF78EBBB6F5005FCCBF47F6FF766F
:1030F800944E96FBF5F61E44B61326EAE676AE42E3
:10310800A8BF05F1FF36002AA8BF0136A7E6002DA3
:1031180000F004810A9B0830101A083BB5F5005FDF
:1031280020620A9340F30981D946099B0B93089BB7
:10313800002B57D00B9AB9F800505188B9F80230D3
:10314800128815FB01F513FB02F3ED1AED0F294662
:103158006D00C5F101054046012205F0F9FC6B42FE
:103168009BB20C930023ADB2089361E74FF00108BE
:1031780049E48E46B2E5711EC91BF71B11443A4457
:103188007DE60A9AD9F808000D9B009209995A46DB
:10319800CDF804A0FEF76AF9404605F08DF80B9BC0
:1031A8000895C01A1A9B1B1A0A9367E47F107E1CA5
:1031B80006EB4602BB18194640460E920C9305F0E2
:1031C800FDF80E9A0C9B824218DC811A0E44B74215
:1031D800C0F2988006EB4601CA1C404605F030F95B
:1031E800FFF70FBB4046012105F044FB4500C5F140
:1031F80001056B429BB20C93ADB219E7524E86FBA8
:103208000016A6EBE076E2E700250A9AD9F808004E
:103218000D9B0092CDF804A05A460999FEF726F9AD
:103228001CE40221404605F05BF908901BE4B3FA60
:1032380083FCCCF11F0C4FEA6C05E81FB4FA84F745
:10324800400043FA00F006F003FBC7F11F077F10A8
:103258008146F81F400044FA00F006F0F9FABAF186
:10326800000F7FF7D0AB4FF0010E099B05EB0E0C5A
:103278009C1E0EFA0CF35B1004EB4A02ABF102053C
:10328800CDF82480CDF828B090469B4677440EFAB6
:1032980007FE4FEA6E0E34F9023F35F8021F06FBAF
:1032A80003F303F58043C3F3CF335A1A0B4419FBD6
:1032B80002B210FB03E342FA0CF23B41A045228024
:1032C8002B80E8D1DDE9098B089B002B7FF4D7AC74
:1032D800FFF799BB099B00260B934FF6FF73121A51
:1032E800089622620D46D9460C9347F6FF779FE66B
:1032F80048420840B0FA80F0C0F1200021FA00F7F7
:1033080001382EE4711EC91BF71B11443A4464E7C7
:103318004FF0020EE2E44FF0000E0CE508957DE652
:103328000B91F5E502230B93F2E5BBF800300B9DFA
:103338005B42ABF80030012329E6DDF82490CDF894
:103348002CB0F4E60180FFFF56555555024A034B51
:1033580002FB0030704700BF0D6619005FF36E3C3A
:103368002DE9F04F83B0DDF834808669D0F824A0C9
:1033780036F91800DDE90E75012D14460AFB07FA27
:1033880007FB00F2DDF830B0109804D09AFBF5F591
:10339800AA42A8BF2A46002840F08780AAEB020A62
:1033A80004EB8202009206EB4B02B2F9009007FB95
:1033B80009F9B9F1000F01EB490509DD4FEA89095F
:1033C80020464A460021019310F0AAFE019B4C4476
:1033D800C3454CDA4FEA4B013C4A06EB48080E4419
:1033E80002390B44934433F9022F1BF9010FB6F944
:1033F800001002EB801236F902CFB2F5004F07FB3E
:1034080001F107FB0CFC3BDA12F5004F4ADB12B264
:103418004FEAA22ECEF1100EBEF11F0F42DC42F28F
:10342800DC7043F6E319C2F30902120100FB02F053
:1034380009EBD03045F6141902FB00F009EBD03047
:1034480002FB00F243F6FF70BEF1000F00EBD23032
:1034580002B230DB35F9022B013100FB02F28C4558
:1034680042FA0EF244F8042BF4DC4645BBD10021A5
:1034780000984FEA8A0203B0BDE8F04F10F050BE42
:103488004FF0020E4FF4804035F9022B013100FB5A
:1034980002F28C4502FA0EF244F8042BF4DC46459D
:1034A800A1D1E4E700208646D4E74FF00008009455
:1034B800C346324679E7BEF1FF3F0DBF10464FF4D1
:1034C80080404FF0020E4FF0010EDDE7C76601089D
:1034D8002DE9F04F8FB0DDE91A45AC42209E80F20D
:1034E800848103902046189C089104FB0022012146
:1034F8000B9202461D46029300F180431F980A442E
:10350800013B00EB830002FA01F301FA05F91946C1
:10351800BC4FDFF8FC820D920C900A93039B8A1E25
:103528009B6906925C5E9A5E0C99A41A51F8043F56
:10353800B4F5807F0C9103F1010340F23A81B3FBAB
:10354800F4F3029AD340B04A02EAC3135B429BB237
:1035580043F385220E2A00F3458112F10F0FC0F2C2
:103568003F8142F2DC7543F6E31045F614116FF023
:10357800010E43F6FF7A1FFA82FCA3EB8C2343F378
:103588000B031B0113FB05F500EBE53010FB03F003
:1035980001EBE03111FB03F3AEEB020E0AEBE33A69
:1035A800BEF1000F0FFA8AFA40F322814AFA0EFAA6
:1035B8004FEA6A03029A002004FA02F1B1FA81F292
:1035C800C2F11F0252100090C2F107004000099199
:1035D800059201FA00F04FF0804183FB015253003D
:1035E8001AB200230492019306F032F90B9D07905A
:1035F800039B1A9A9968019B03FB01221D9B33F9CF
:1036080012C01E9B33F91200189B012B0DD11A9B77
:1036180019441D9B33F911E01E9BF44533F9113011
:10362800B8BFF4469842B8BF18461C9B844533F986
:103638001230D4BFA3EB0C031B1AB3F5804F80F2F2
:10364800AD8023EAE372524292B242F3852111F12E
:10365800100F00F0A38042F2DC7E43F6E31045F63B
:1036680014136FF0010C43F6FF7B1FFA81FAA2EBEB
:103678008A2242F30B02120112FB0EFE00EBEE301F
:1036880010FB02F003EBE03313FB02F3ACEB010C8D
:103698000BEBE333BCF1000F1BB240F3818043FA1C
:1036A8000CF323F00103029A032A0AD145F681227A
:1036B8009342A8BF134645F6822213FB02F343F355
:1036C8008F33049A9342A8BF134643F34E0C079BCB
:1036D800069A03FB0CFC039B4FEAEC3C9B69B9F18F
:1036E800000F985E059B4CFA03FC029B0FFA8CFBBB
:1036F80000FA03F0009B1844089B03EB400029DD07
:103708000021CCF1000C0A4602E001324A451AD0E9
:103718002B78134113F00103F7D1002C0FDD194664
:1037280007FB068601EB020A16F4004FD64603F1A2
:1037380001032CD1A34220F81AC04944F0D1012139
:1037480001324A45E4D129B1219B47F6FF72099914
:1037580008F088FB009A1999019B0A440092189A6C
:1037680001339A42019305F101053FF741AF0A9BE6
:1037780002330A930B9B13441B9A0B9311460D9B20
:1037880099421A9331D001330D930A99C6E69C42A7
:1037980020F81AB04944C3D10121D1E7002382E7B8
:1037A80002318B405B105B45A8BF5B465B001BB2D8
:1037B80079E762422240B2FA82F21448C2F120024A
:1037C80024FA02F150F82110501E23FA00F0A0FB51
:1037D800010104FB11339C428CBF0B464B1CB0E625
:1037E8000023E7E647F6FF73E4E60FB0BDE8F08F85
:1037F80047F6FF7102320AFA02F253108B42A8BF51
:103808000B46D7E60D66190080FF7F009C6401080F
:103818005FF36E3C2DE9F04FADF2F46D9A468B697B
:1038280008AFC7F89030D7F8FC36D7F80C97D7F818
:103838002C87002B01F09880002840F02782022373
:10384800C7F8B8300123B864FB67B9F1000F00F07E
:103858003182012404FA08F3A342D4BF4FF00009CF
:103868004FF00109C7F89C308C68D7F8906004F1D4
:103878000044013C36F9125036F914C005FA08F331
:103888000CFA08F6F51AC7F8A030D7F8B830640073
:1038980003FB05FE4FEA4E0E0EF1080E2EF0070E42
:1038A800ADEB0E0D08ABC7F8AC3053007B64D7F80E
:1038B800AC3003EB45057D66D7F890509E46530023
:1038C800EB18BB65002800F04B87FB6F002B00F05E
:1038D80047872C44B4F90240A4EB0C0404FA08F41A
:1038E8006400083424F00705ADEB050D08ABC7F8F4
:1038F800A830002524F00704ADEB040D08ABADEBB0
:10390800040D3B6408ABADEB040DFB6308AB7B63B4
:10391800D7F83437ADEB040D1E6808ABADEB040DDA
:103928003B6308ABFB62D7F804375245C7F844310C
:10393800D7F82837C7F85051C7F83C31D7F81837A7
:10394800C7F82001C7F83031D7F81037C7F8281161
:10395800C7F83431D7F83C37C7F85891C7F84C3115
:10396800D7F84037C7F84861C7F85431FB6FC7F834
:10397800243180F283825446C7F860A04FF0010AD0
:10398800B967D7F89C10C7F880200AFA01F3591EC6
:10399800F965631E02EB0A01C7F88410C7F8A43062
:1039A800796CD7F81837881C9A4201F10401B8627B
:1039B8007962C0F284821646C7F8B450D7F8B820A6
:1039C800731C114601FB03F1FB66D7F8000706FBE1
:1039D80002F3396541183967D7F808177B65B300D2
:1039E8001A1FCB18C7F88C30D7F81C37D7F824B76C
:1039F80013447B67D7F89030444603EB4603C7F877
:103A0800BC30D7F830379B1BC7F88830FBE0D7F8B5
:103A18008830032BA8BF0323BBF1000FC0F21C8220
:103A2800B3F5807F40F23482BBFBF3F343F6FF72B9
:103A38009542A8BF1546D7F88C20126813449D42BA
:103A4800A8BF1D46FB6F25EAE575002B00F017811E
:103A5800D7F8BC30BA6D33F9023CB2F90020D7F878
:103A6800B010A3405B1AA2409A4240F3D781D7F81E
:103A78008430B34200F035877A6F52F8043F7A6792
:103A8800BA6FC7F83831D268B24200F31781D7F855
:103A98009810D7F8AC208C46D7F8FC06BA660028F0
:103AA80018BF94460022C7F898C0C7F8A820D7F8CE
:103AB800A420B24200F0D287D7F8B42062B1D7F878
:103AC8001027032A40F0FF80D7F89C20012A00F332
:103AD800FA80002BC0F2F780D7F81437002B00F0DB
:103AE8006181D7F81837B34201F01180FA6D6FF091
:103AF80001091346FA644FF0FF3800224FEA650ABD
:103B0800D7F8A410B14201F0198047F6FF71069367
:103B1800D7F8A830D7F8A000CDE90413D7F8BC30FF
:103B2800B96E33F9023C0192A3401B1AD7F8AC00D6
:103B3800D7F8B02000EB4303CDE90243D7F89C3017
:103B480007F5907000935346FEF76AF9B8F1FF3F06
:103B5800064600F09B817B6E03EB0902D7F8BC3068
:103B6800D7F8A01033F9023CA3405B1A796E01EB39
:103B7800430347F6FF70F96CCDE902430691D7F885
:103B88009C30D7F8A81001920591009304905346F1
:103B9800D7F89810D7F8B02007F59070FEF740F9DD
:103BA8003A6F3B6D796DD31A5E54D7F88C1002F8D2
:103BB800010C51F8043BC7F88C10D7F8B010B5EBDE
:103BC800C10FD7F89410C8BF4FF0010A19440B462B
:103BD8004FF00001C7F85811D7F888109B4401F13D
:103BE800FF31C7F88810D7F8B810FB6E0A443A6757
:103BF8003A6ED8BF4FF0000A114699421E4640F36C
:103C08003B810133FB66D7F8BC3033F9022BC7F888
:103C18002C61C7F8BC30D7F8FC3602FA04F84FEA32
:103C28004808002B00F0F7804344C7F89830D7F8CD
:103C3800BC30D7F82807B3F900309B1AA340C7F85F
:103C4800B03004F039FBD7F88030C7F89400B3429D
:103C580018BF0346D7F8942018BFABEB030BD7F86F
:103C680020379D1A6B1EC7F84031D7F83037B3425A
:103C78003FF7CDAEFB6F0025002B7FF4E9AED7F8F8
:103C88008430B3427FF4F8AE00F038BED7F814376A
:103C9800002B40F07E86D7F83837072B40F38B8609
:103CA80001230224BB64C7F8B840FB67B9F1000FD1
:103CB8007FF4CFAD0123C7F89C30D5E5D7F8F826B7
:103CC8004244BA66F3E6D7F89030D7F8B4001A46FB
:103CD80032F91080D7F8A030D7F8B02008FA04F8E5
:103CE800A8EB0308A8EB0208D7F89020410028EABF
:103CF800E87803EB080C02EB010E00E018463EF9E9
:103D0800022D431EA2409445F8DBD7F890200239D3
:103D18001144D7F8B0209444D7F8B420013A05E00C
:103D280031F902EF0EFA04FEE64502DA0132964254
:103D3800F6DC4FF0000ED7F8B810F44600FB01F09F
:103D4800D7F80017C7F82C4701EB0009D7F8B810C7
:103D5800D7F8B840411A8A464946FE640E1A16F842
:103D68000A90013311F8016C9A424CEA090C4EEAA8
:103D7800060E2144F2DCD7F81437FE6CD7F82C472E
:103D8800002B58D0D7F81837B34200F0C586D7F8BB
:103D9800AC204FEA4809C7F84CE063464A444FEA6A
:103DA800650AADE6D7F89830002B00F0EE85D7F815
:103DB8001437D7F85CC01A46E646C7F85031D7F82A
:103DC800A430B34200F0DA86D7F8BC30D7F8A01098
:103DD80033F9023CA3405B1AD7F8AC1001EB43035C
:103DE8004CEA0E010691D7F8A810CDE90224CDE9D6
:103DF8000431D7F89C30D7F89820CDE90053B96E34
:103E0800D7F8B03007F59070FEF796FC0023064609
:103E1800C7F81437C4E6C7F8983008E7BAF1000FB6
:103E280000F04385D7F88430C7F8B460B3427FF414
:103E380023AE00F063BDD7F89830002B00F0D28491
:103E48000023B8F1FF3FC7F8503116BFD7F8AC30A0
:103E5800002203EB4802B2E7B3F5807FCBF1000202
:103E680040F2F284B2FBF3F35B42DFE53B6EAA4615
:103E78009E42A046FFF6A2ADD7F84861D7F834377E
:103E880007F2D4671E60BD46BDE8F08F002265E6E4
:103E98005A421A40B2FA82F2D748C2F1200223FAF3
:103EA80002F150F82110501E2BFA00F0A0FB01017E
:103EB80003FB11B29A4234BF0B464B1CB6E5D7F848
:103EC800B820D7F88430D7F880001946134601FB8C
:103ED80003F3D7F818177B65A142A8BF2146F964F8
:103EE800B96DD7F81C47C7F8BC101146024601FB4C
:103EF80002F23A658200111F61183967D7F808176E
:103F0800C7F8B4508A18C7F88820D7F8002706469B
:103F1800D3187B67D7F8303755461B1AC7F88C304B
:103F28004446E9E0D7F88C10D7F824370329A8BF0E
:103F38000321002BC0F2EC83B1F5807F40F2F483BB
:103F4800B3FBF1F1D7F888301B681944884203465F
:103F5800A8BF0B4683F30E03C7F89830FB6F002BFE
:103F680000F00881D7F8BC30BA6D33F9023CB2F9D9
:103F78000020A340A3EB0B03A240934280F2E4810C
:103F8800D7F884309E4200F0E6843A6F52F8043F36
:103F98003A67BA6FC7F83831D268B24240F31A812B
:103FA800D7F8F8264244FA66D7F8A420964200F0DB
:103FB8005F85D7F8B42062B1D7F81027032A40F0FC
:103FC8001D81D7F89C20012A00F31881002BC0F22C
:103FD8001581D7F81437002B00F07681D7F81837F9
:103FE800B34200F08085FA6DD7F89830BA665D1054
:103FF8006FF0010913464FF0FF380022D7F8A410DC
:104008008E4200F0508547F6FF710693D7F8A83026
:10401800D7F8A000CDE90413D7F8BC30F96E33F90E
:10402800023C0192A3401B1AD7F8AC005A4600EB99
:104038004303CDE90243D7F89C3007F5907000930D
:104048002B46FDF7EDFEB8F1FF3F824600F06A838C
:104058007B6E03EB0902D7F8BC30D7F8A01033F910
:10406800023CA3405B1A796E01EB430347F6FF70ED
:10407800B96ECDE902430691D7F89C30D7F8A8105D
:1040880001920591009304902B46D7F8B0105A4638
:1040980007F59070FDF7C4FE7A6F7B6D396DD31A02
:1040A80003F801A0D7F8881002F8010C51F8043B76
:1040B8000136C7F88810D7F89810B1EBCB0FD7F8AE
:1040C8009410C8BF01250B444FF00001C7F85811E0
:1040D800D7F88C10D8BF00250139C7F88C10D7F84D
:1040E800B8100A447A67D7F824271A44FB6CC7F833
:1040F80024279E42BFF6BAAED7F8BC3033F9022B5C
:10410800C7F82C61C7F8BC30D7F8FC3602FA04F8B7
:104118004FEA4808002B00F014814344C7F8B03038
:10412800D7F8BC30D7F82807B3F900309B1A03FA40
:1041380004FB04F0C1F8D7F88030C7F89400B34204
:1041480004D0D7F824371B1AC7F82437D7F82037F4
:10415800D7F89420981A431EC7F84031D7F830375B
:10416800B3423FF7DFAE0023C7F89830FB6F002B50
:104178007FF4F8AED7F884309E427FF406AFBB6F69
:10418800786A9A69BB6AD15E7B6CD35E125ECB1A81
:10419800521AA340A2404FEA4309D31A5D00A9EB83
:1041A8000202D7F8AC304FEA420A03EB0A0103EBEC
:1041B80009002A460FF090FFD7F81437002B3FF478
:1041C800E4AE7B6E2A4603EB0A0103EB09000FF00D
:1041D80083FFDAE6D7F8B010D7F8AC200D46D7F849
:1041E800FC06FA66002818BF15460022C7F8B0502A
:1041F800C7F8A820D8E600BF9C640108D7F890202B
:10420800D7F8B400D7F8A03032F91080410008FA86
:1042180004F8A8EB0308A8EB0B0828EAE87803EBF6
:10422800080502EB010C00E018463CF9022D431E7C
:10423800A240AA42F8DCD7F8902002391144D7F8F6
:10424800B4205D44013A05E031F902CF0CFA04FCD0
:10425800AC4502DA0132B242F6DB00218946D7F8D2
:10426800B8508C4605FB00F0D7F80017A0EB050AFC
:1042780001EB000E4D467146C7F82C47D7F8B840F9
:10428800A1EB000E1EF80A90013311F801EC9342DD
:104298004CEA090C45EA0E052144F1DBD7F814373E
:1042A800BD66D7F82C47002B59D0D7F81837B3423A
:1042B80000F01E84D7F8AC20D7F898104FEA4809C8
:1042C80063464A444D1099E6D7F8B030002B00F009
:1042D8005783BA6C002A40F04C82D7F85CC0C7F804
:1042E8005021C7F868C0D7F8A4309E4200F049842E
:1042F800D7F8BC30D7F8A01033F9023CA3405B1ABA
:10430800D7F8AC1001EB4303B96ECDE902244CEAAF
:104318000105D7F8A8100695CDE90431D7F89C30E7
:10432800D7F8B0200193D7F89830F96E009307F5C5
:1043380090705B46FEF700FA00238246C7F81437F0
:10434800AAE6C7F8B030EBE6002D00F0BC82D7F83B
:104358008430C7F8B4609E427FF417AE0FE7D7F8F1
:10436800B030002B00F00C82BB6C002B00F0C58134
:10437800BB6FD7F804279B68D7F80417334451F864
:10438800231052F82620A84B8A421046A8BF084698
:1043980083FB0053A3EBE07319441A448A42134683
:1043A800B8BF0B460133B3FA83F3C3F11F03A3F17C
:1043B8000E00002840F3F582024113B20141FB616F
:1043C8000BB2BB61D7F8283707F1C00A1D460FCDDD
:1043D800AAE80F000FCDAAE80F0095E80F00D7F85C
:1043E800285707F5AE7E2D6807F590798AE80F0003
:1043F800B9E80F007D61D7F82857AEE80F00B9E893
:104408000F00AEE80F00B9E80F00AEE80F0099E81A
:1044180007004FEA4B0399466D68BB633D61D7F8C7
:104428002857AD69FD608EE807001A46BB6EF96E25
:1044380043EA0C05386C3D620FF04EFE4A46D7F849
:10444800B010F86B0FF048FE4FF0FF339845C7F8EF
:1044580050310EBF0023D7F8AC3003EB4803BB66DE
:10446800D7F8A4309E4200F0DA83D7F8BC30D7F8EA
:10447800A02033F9023CA3409B1AD7F8AC2002EBEA
:1044880043033A6AFD690692D7F8A820D7F86C80EA
:10449800CDE90432BB6ED7F8B0200293D7F89C3030
:1044A80003940193D7F898304146009307F590702C
:1044B8005B462D04FD61FEF73FF9BBF1000F786004
:1044C8004FF0000240F3E7823B6CB96B023B03EB11
:1044D800010CA8F1020133F8025F31F8020F6345BD
:1044E80015FB0022F7D14FF00009F969FB6B08466C
:1044F80082FB001ABA6B023B9D18D7F8B0204FEA2E
:104508004A0A023A33F8020F32F8021F9D4210FBA2
:104518000199F7D1D7F8288707F1F00EB8E80F000E
:10452800AEE80F00B8E80F00AEE80F0098E80F00FB
:1045380007F5CC7507F5907C8EE80F00BCE80F00F6
:104548000FC5BCE80F000FC5BCE80F000FC59CE8FD
:104558000700BB69D7F838801B0485E807009C462C
:104568004246F96EBB60786B89FB0C530AEB430338
:10457800BB610FF0B1FD4246D7F8B010386B0FF0B1
:10458800ABFDD7F8A4309E420FD0D7F8BC304246D6
:1045980033F9021CD7F8A030A140C91AD7F8AC30BB
:1045A800F86A03EB41010FF097FDFB683A697969F6
:1045B800A2EB030919444A4607F5EA7079610FF03E
:1045C8008BFDD7F8288707F1C00EBEE80F00A8E8D2
:1045D8000F00BEE80F00A8E80F009EE80F0007F5DF
:1045E800AE7507F5907C88E80F000FCDACE80F009A
:1045F8000FCDACE80F000FCDACE80F0095E8070031
:10460800BD6B8CE807002A46396CF86E0FF064FD24
:104618002A46F96BD7F8B0000FF05EFDD7F8843062
:104628009E4200F0008301E0565555550123C7F816
:104638005031D7F8A4309E4200F0F382D7F8BC304E
:10464800D7F8A02033F9023CA3409B1AD7F8AC2036
:1046580002EB43033A6AFD6E0692D7F8A82003944A
:10466800CDE90432BB6ED7F8B0200293D7F89C305E
:1046780029460193D7F8983007F5907000935B4668
:10468800FEF75AF8BBF1000F82464FF0000240F3E4
:10469800FB813B6CB96B023B03EB010CA91E33F8A1
:1046A800025F31F8020F9C4515FB0022F7D1F9692A
:1046B800FB6B084682FB001EBA6B023B03EB020C45
:1046C800D7F8B0204FEA4E0E911E002233F8025F51
:1046D80031F8020F634515FB0022F7D1BB68184675
:1046E80082FB00130EEB430EBB69734580F26C81AD
:1046F80000235046C7F81437CEE4B8F1FF3FC7F897
:10470800503116BFD7F8AC301A4603EB4802EAE539
:10471800B1F5807FC3F1000C40F2AF80BCFBF1F132
:1047280049420FE4002296E44B420B40B3FA83F36C
:10473800C3F1200ED34B21FA0EF253F822C0D7F85A
:1047480024370EF1FF3223FA02F2A2FB0C9A01FB86
:104758001A328A4234BF51460AF10101FFF7F2BB0F
:10476800D7F8F8360A2403EB4603C7F8A830FFF752
:10477800C0B8D7F85CC04FF0FF38C7F868C0F7E595
:10478800D7F8AC3003EB4802D7F8A4309E4200F0CB
:104798004482D7F8BC30D7F8A01033F9023CA340C4
:1047A8005B1AD7F8AC1001EB430347F6FF70B96EFC
:1047B800CDE902434CEA0105D7F89C30D7F8A81098
:1047C8000192059100930490D7F898300695F96EF8
:1047D8005A4607F59070FDF723FB00238246C7F879
:1047E800143759E4D7F8AC3003EB4803D7F8A420C2
:1047F800B24200F0C981D7F8BC2032F9021CD7F8C0
:10480800A020A140891AD7F8AC2002EB410147F655
:10481800FF724CEA0E0006900193D7F8A800D7F86B
:104828009C300590CDE90241009304922B46B96E65
:10483800D7F8B02007F59070FDF7F2FA0023064686
:10484800C7F81437FFF7ACB959421940B1FA81F1EA
:10485800C1F1200C8B4923FA0CF051F820000CF11F
:10486800FF3122FA01F1A1FB000103FB11229A4258
:1048780034BF0B464B1CFFF7F7BA4B420B40B3FA59
:1048880083F3C3F1200E7F4B21FA0EF253F8222056
:104898000EF1FF332CFA03F3A3FB022301FB13CC25
:1048A8008C4534BF1946591C3AE7D7F8B4301A4634
:1048B800002B08BF3246D7F88430C7F8B420B3427B
:1048C8007FF4DAA81AE0D7F8B4301A46002B08BFEC
:1048D8003246D7F88430C7F8B4209E427FF455ABEF
:1048E8004DE4BAF1000F40F026811946D7F8B430EC
:1048F8001A46002B08BF0A46C7F8B420BB6F786A6F
:104908009A69BB6AD15E7B6CD35E125ECB1A521A6F
:10491800A340A2404FEA430AD31A4FEA4309AAEB3D
:104928000202D7F8AC3052009918BA6603EB0A00B5
:104938004A460FF0D1FBD7F81437002B3FF49CA858
:10494800BB6E4A4619467B6E194403EB0A000FF00A
:10495800C3FBFFF791B825B9D7F8B430002B7FF423
:1049680009ACC7F8B4600AE4B0FA80F301245B0923
:10497800FB67D7F8FC36C7F8B840BB64FEF765BFDD
:10498800FD6D1A46AC46BD66FEE6D7F85CE0F44617
:104998002CE700230224BB64C7F8B840FB67FEF786
:1049A80054BFC3F10E039A4001FA03F312B21BB2CB
:1049B800FA61BB6106E5D7F81437BB64FB670223CD
:1049C800C7F8B830FEF741BFD7F8288707F1F00CD1
:1049D800BCE80F00A8E80F00BCE80F00A8E80F002B
:1049E8009CE80F0007F5CC7507F5907E88E80F0066
:1049F8000FCDAEE80F000FCDAEE80F000FCDAEE83B
:104A08000F0095E80700BD6B8EE807002A46796B12
:104A1800F86E0FF061FB2A46396BD7F8B0000FF03B
:104A28005BFBD7F8A4309E420FD0D7F8BC302A469B
:104A380033F9020CD7F8A030A040C01AD7F8AC3030
:104A4800F96A03EB40000FF047FB4A4607F5EA71A5
:104A580078690FF041FBD7F804A049E6BA6C002A40
:104A6800D7F8A82008BF0022C7F8A820FFF724B865
:104A7800BA6C002AD7F8A82008BF0022C7F8A820D7
:104A8800FFF797BA9C640108FB69194682FB013E4F
:104A98004FEA4E0E22E6FB699146194682FB013A1F
:104AA8004FEA4A0A36E50693D7F8A83047F6FF706A
:104AB80005930023CDE90243D7F89C300192009377
:104AC8000490F96E2B465A4607F59070FDF7A8F941
:104AD800B8F1FF3F824600F0BE807B6E03EB09020F
:104AE8000023FFF7C3BAFD6D4FF0FF38AC46BD6633
:104AF800FB6F002B4AD1D7F8B030002B7FF434ACD1
:104B0800B8F1FF3F7FF43CAED7F8B0203CE6D7F8C9
:104B18005CE04FF0FF38F446FB6F002B5AD1D7F812
:104B28009830002B7FF48CA9B8F1FF3F7FF45AAE80
:104B3800D7F898305AE6C7F8B430DFE60693D7F8C6
:104B4800A83047F6FF7005930023CDE90243D7F854
:104B58009C30019200930490B96E5346D7F8B02068
:104B680007F59070FDF75CF9B8F1FF3F064676D07F
:104B78007B6E03EB09020023FEF7FBBF0023FFF760
:104B88002FB90023FFF7C0BB002140E6D7F8BC309F
:104B9800D7F8A02033F9023CA3409B1A002BAADDCA
:104BA80000207D6ED7F8AC10A5F1020ED7F8BC90A6
:104BB800BD6E023931F9023F3EF902AF013053446C
:104BC8005B100B8039F9023CA3409B1A8342F1DC4D
:104BD800BD6690E7D7F8BC20D7F8A01032F9023CA0
:104BE800A3405B1A002B9ADD00219246D7F8AC301F
:104BF800981E7B6EA3F1020939F9022F30F9023FA2
:104C0800013113445B1003803AF9023CD7F8A02025
:104C1800A3409B1A9942EFDB81E70023C5E50023F7
:104C28002FE4002316E5BB6F786A9A69BB6AD7F848
:104C3800AC50D15E7B6CD35E125ECB1AA340521A85
:104C4800A2405800D31A821A05EB420128445A00A0
:104C58000FF042FAEAE400221346FFF707BA0022EF
:104C68001346FEF786BF00BF2DE9F04F97B0209C92
:104C7800DDE923760196259E13940296BDF98840B6
:104C8800269EBDF9845011900F910D940E965DB932
:104C980054B98142864600F0DC81139CA20017B00B
:104CA800BDE8F04F0FF023BA0F2BB8BF0F234FF416
:104CB80080411E46DFF8C493039307EB470C019B22
:104CC8004FEA4C0C09EB0C0403EB43004000B4F82A
:104CD80002E0A48809EB000839F800A039F80CC0F4
:104CE800B8F8020015FB0419B8F804800D9C15FBF0
:104CF8000E1E14FB001014FB0A1A15FB0C1C14FBE7
:104D08000811C6EB86784FEA88041094231D261FE5
:104D1800109C1296A4F10806344615964EF3CF3629
:104D28000A9649F3CF3641F3CF310B964CF3CF3681
:104D3800099608914AF3CF360F99069640F3CF3675
:104D48001298149351F803900D9B0F2A51F800E024
:104D58000859109CB8BF0F229D42079651F804B01D
:104D680000F07A810E9B002B40F38181029BC2EBFD
:104D78008272A3F1020A0F9B064603EB82040E9A85
:104D88000AEB42020C92149A9A18043B0393119B63
:104D98000492043BCDE90193D14603E0DE46DDF8F9
:104DA80004B0019039F9023F099903FB03F3DB13BF
:104DB800C3F5FF427F3212B202FB01F50A9945F3AF
:104DC800CF3502FB01F00B99D4F8008002FB01F209
:104DD8000399059251F804AF2D04039188FB052C23
:104DE8000699079A54F8047F1BB203FB02F803FBE9
:104DF80001F1089A54F8085C03FB02F340F3CF3042
:104E0800059A0AEB4C0C00042F4487FB005A65688E
:104E180054F80C0C42F3CF320CEB4A0C41F3CF316F
:104E280012042844090480FB02750CEB450C8BFB2B
:104E38000125049A0CEB450C52F8040F48F3CF38BF
:104E48000492019A43F3CF3302EB0E011B0406448C
:104E58004FEA084881FB08520CEB420C86FB031210
:104E6800844B0CEB42029A42B8BF1A46824B7646F4
:104E78009A42A8BF1A46029B43F8042F02930C9B40
:104E88004B458BD10E9B0D9A92B90F9B119CA34257
:104E980000F0DF800E99139A880003440444521AE4
:104EA80020461946920017B0BDE8F04F0FF01FB921
:104EB8000F9A4FEA830C62441746139A109DD31A2F
:104EC800159A043BB958129A7859BC58149A002B71
:104ED800BA5805934FEA420E119A4FEA41016244CB
:104EE8004FEA440494464FEA400007EB050640F3B6
:104EF800B08000230493069BF0464FEA034AD3464A
:104F08003546079B01961B040293089B1B040393D9
:104F1800AB683A6880FB0BE5029E4FEA430E2A44D1
:104F280004EB080585FB0693039D71441A44A946C2
:104F380081FB09534F491A448A42B8BF0A4688FB85
:104F48000B358EFB0B394C4914378A42A8BF0A46E9
:104F5800CCF80020019A57F8103CD1682B4400EB9C
:104F68000E0585FB06A2039D490013440C442E46FA
:104F780084FB06523F4C1344A342B8BF234681FB2F
:104F88000B2A3D4C01EB0802A342A8BF2346CCF8EC
:104F98000430019B57F80C5C1C694D446400029E68
:104FA80082FB06931D440319039883FB0029314AA9
:104FB8004D449542B8BF154684FB0B392E480CF179
:104FC800140C8542A8BF054601984CF80C5C57F8AC
:104FD800082C43690EEB04055800524485FB06A3D0
:104FE800039D1A442E4600EB080383FB065A214D05
:104FF8005244AA42B8BF2A461F4B0D189A42A8BF6E
:105008001A46019B4CF8082C9B6957F8042C4FEA68
:105018004308029B4A441E4685FB0693039D1A4497
:10502800C6442E468EFB0653124D1A44AA42B8BFF8
:105038002A46114B019D9A42A8BF1A46049B4CF878
:10504800042C059A05331435934204930195FFF611
:105058005FAF17B0BDE8F08F039B9A427FF482AE32
:10506800019B9F427FF47EAE00230E930BE7002343
:1050780009E700BF005D1EEE00A3E11138500108EA
:105088002DE9F0418468002C20DD002603EB420C5A
:10509800D0F860E0876904390CF1FF3C04FB0CE4AC
:1050A800A55DB7F900804035B7F9024003FB05F567
:1050B800A4EB0804944004FB05F4A41041F8044F41
:1050C80084680136B44207F10207E7DCBDE8F081E5
:1050D8002DE9F04F8BB000AFFB613B6D7C6D012B70
:1050E800C7E90512B4F90040C7F800D000F00881FC
:1050F800002147F6FF798E46BD69A74EAB0003F144
:105108000A02043B3B61FB6922F00702ADEB020D8A
:105118004FEA43083A6D3B6D95FBF2FB9B00021F7B
:105128003962C7F80CD024047A62BB60BB6D53F8AF
:105138002E207B6A53F8045F7B623B6D012B54DDA4
:10514800BB69002B0FDD3B69291F1D44FB68181F35
:1051580051F8043F13448D4283FB04C240F8043FD6
:105168004FEA4202F4D1BB6D43F82E20FB6D002BB1
:1051780000F0AA80BBF1000F2ADD7B69FD680020E2
:1051880003EB4E01D7F808C009E013F5004F5BDBCD
:105198001BB2013083450B806544414418D02B680D
:1051A800B1F9002003F500631B13B342B8BF3346BF
:1051B8004B45D4BFD31802EB0903B3F5004FE4DB2A
:1051C80047F6FF73013083450B8065444144E6D1BF
:1051D80001233B62FB690EF1010E7345A6DCD7F88B
:1051E80000D02C37BD46BDE8F08FFB6D73BBBB69A3
:1051F800002B1ADD3B69A5F1040C1D447B6903EB08
:105208004E005CF8043F1A4402F500631B13B342D6
:10521800B8BF334682FB04A14B45A8BF4B46654542
:1052280003804FEA41024044EBD1BB6D43F82E2086
:105238003B6A002B48D100233B62FB690EF1010E4B
:1052480073453FF773AFCAE73346A2E7BB69002B44
:1052580031DD3B69A5F1040A1D447B69C7F804E008
:1052680003EB4E0C08E013F5004F2BDB1BB2554542
:10527800ACF80030C4441CD05AF8041FBCF9003004
:105288000A4402F500610913B142B8BF314682FBF6
:1052980004E04945D4BF5B184B44B3F5004F4FEACF
:1052A8004002E0DB47F6FF735545ACF80030C444D4
:1052B800E2D1D7F804E0BB6D43F82E203B6A002BFF
:1052C800B9D057E73346D2E7BBF1000F80DD0021A4
:1052D8007B69F868BD6803EB4E020368013103F58A
:1052E80000631B13B342B8BF33464B45A8BF4B46B8
:1052F8008B45138028444244EFD101233B6269E780
:10530800FB69022B7FF4F4AEFB6D002B7FF4F0AE4B
:105318001646BB6D002E196845685A6835DD47F694
:10532800FF7A0368D7F814C0DFF86C90A3F104087B
:105338000CEB860B2304A5F1040E58F8044F5EF815
:10534800045F0C44154404F50060001305F5006281
:1053580012134845B8BF484684FB036185FB0364C4
:105368004A45B8BF4A465045A8BF50465245A8BF0F
:105378005246ACF80000ACF802200CF1040CDC45F5
:105388004FEA41014FEA4402D7D1BB6DC3E900128D
:10539800D7F800D025E700BF0080FFFF2DE9F04FC8
:1053A80095B081464FF0010C446A06AFD7E91C0658
:1053B80004FA06F5BD60AD007D600A3525F00705E5
:1053C800ADEB050D9A4606ABFB61D9F804300D46E6
:1053D8003B630CFA06F3BB61D9F81C30FA60D9F8C4
:1053E80008807B63002879D19B1B7B63FB6EE346B7
:1053F800022BBC6877D0012B00F0D28000233B62DF
:105408004FEA48037B61BB68FE685B003B61FB6950
:10541800C7E9095A03EB8B034FEA840AFB6209F1D7
:105428003808FB6FFC690493BB6F22460393BB6982
:10543800796A02937B6E484601933B6E0093BB6A80
:10544800FDF78EFFBBF1000F15DD0025D7F88010A2
:10545800D9F834303268CDE902B1796B2A44019128
:10546800396B40460091214604F01CFBFB6A04346A
:10547800A3425544EAD17A6A39693B6A0A447A6296
:105488007969BA6A01330A44BA62FA6E3B629A428F
:1054980006F10406C5DCBB68002B1BDD7B68181F02
:1054A8000026FB68724D734CD7F86CE0A3F1040C2E
:1054B8005CF8041F0A1F014452F8043FAB42B8BF0E
:1054C8002B46A342A8BF234691421360F4D101366C
:1054D800B645EDDC3C37BD46BDE8F08FFB6ED7F82E
:1054E80018B0022B87D1BB6E012B87D1FB6FFE69E9
:1054F8000493BB6F29460393BB69324602937B6EC4
:10550800484601933B6E00935346FDF729FFFA681E
:105518003B6B556803EBD3735B1005EB830528469B
:105528007A6831460EF0D8FDBBF1000FB3DD0026D6
:105538004FEA8B034FEA840AFB62EC1809F138083A
:10554800D7F88010FA68D9F834301268CDE902B17A
:10555800796B32440191396B4046009129460435F4
:1055680004F0A0FAAC425644EAD1FC69FB6A002672
:1055780023441D46D7F88010FA68D9F834305268A9
:10558800CDE902B1796B32440191396B4046009103
:105598002146043404F086FAA5425644EAD17AE753
:1055A800BB6E022B7FF42AAF3B6BFA6F03EBD3760B
:1055B800FB68796E1B680492BA6F01910392396E89
:1055C800BA6976100292009103EB8606FA6953468F
:1055D80029464846FDF7C4FEBA69F96F02927A6E09
:1055E800049101923A6EB96F0092BA6803910AEB7E
:1055F800480305EB420148463246FDF7B1FEBA685A
:10560800002A31DD7A68FB69101F043E19181A1F39
:1056180056F8043F52F8045F5B1003EB65038A42B7
:105628001360F5D1BBF1000F7FF73AAF4FF00008D8
:10563800FE69A50009F1380A06EB8B04D7F880103B
:10564800FA68D9F834301268CDE902B1796B42446E
:105658000191396B504600913146043604F022FA24
:10566800B442A844EAD116E7BBF1000FDEDC31E70B
:10567800005D1EEE00A3E1112DE9F04FADF6741D9B
:10568800034606460AAFC7F89C00C7F8841053F8CB
:10569800580BC1EB81718900B668456801F5005463
:1056A8001919012EC7F89420B867C7F89040FD660D
:1056B800C7F88C60C7F8AC1005F50062D0F8088010
:1056C800D0F818A0C7F8A43006DD03EB820108194A
:1056D800C7F8A810C7F8B000D7F88C40D7F89C10C6
:1056E80002FB04F203EB820204EB4403486B02EB77
:1056F80003137B674B694FEAC80604283867C7F865
:10570800982006EB8806C7F888302BDC002B00F0C1
:105718000B81D7F89C30D7F88C10D3F818E0BB6F02
:10572800D7F88420DB6802FB01F27345A8BF7346F3
:10573800D7F88810C7F864D08B42B8BF0B46FB6710
:105748003B6F002B4FEA420303F1080323F00703E2
:10575800ADEB030D14BF4FF400754FF4C0650DF1A8
:1057680028091EE0BB6FD1F818E0DB68D7F8842061
:105778007345A8BF7346D7F88C10C7F864D002FBEE
:1057880001F25200083222F00702ADEB020DD7F801
:1057980088204FF400759342B8BF13460DF12809CD
:1057A800FB674FF0000CD7F874B0023ED7F888308A
:1057B800734515DA08FB0CF4E118490070187444B5
:1057C8000BEB440458445944B1F9003030F9022F26
:1057D8005B1B9342B8BF134621F8023BA142F3D1A9
:1057E800D7F88C200CF101039A424FF0010CDDDC54
:1057F800D7F89C30002A9C6A52DD0023D7F888200D
:10580800C7F89830C7F88030FB6F0AEB42020AEB02
:105818004303BA66C7F89030D7F88830FA6F9342D6
:105828002EDAD7F86880B8F90030D7F8942038F91C
:10583800026F03FA02F5F61AD7F8983096401D441D
:10584800002E4FEA450A0DDD2046354409EB450593
:1058580009EB0A0BFDF77AFD03152BF8023B5D45B2
:10586800F8D10446D7F89C3031465B6A09EB0A0048
:1058780047F6FF7206F0F6FAD7F890309845D2D17D
:10588800D7F89820D7F88410D7F880300A44C7F89A
:105898009820D7F88C2001339A42C7F88030BBD1C2
:1058A8000026D7F89C30FA6E9C62D7F88430D7F877
:1058B8008C80C3F5006404EB6204A4009D0007F12A
:1058C800A40353F82600224641190EF010FC731C5D
:1058D80098454FF00106F2DC0025D7F89C20494690
:1058E800536ACDE9075314697B6FB86F0495069422
:1058F800D7F8944007F1AC020594D7F88C40CDE96D
:105908000244FC6F0194D7F888400094FFF746FDE5
:10591800D7F864D03B6FD7F89C20013307F64C17B3
:105928005363BD46BDE8F08F8B6B002B7FF4F1AE5F
:10593800C7F80CD0D1F82490002800F0828246F2F3
:105948006663BB64D7F89C301B6BC7F8943007F5C7
:105958008C737B6707F1B4037B66D7F89430B96F13
:105968005E00B6F5806FA8BF4FF480660022F86E1F
:10597800496B75103963FD64C5F5007105468300F0
:10598800C7F8882003F10A0222F00702ADEB020DE6
:10599800D7F8842000EBD070C2F5006A2A44154677
:1059A8005246401078659000C7E91E0528467400E5
:1059B800BC63083424F00704A3F1040E0DF1280C8D
:1059C8007B6FADEB040DFC6C03EB81013E66FB6E57
:1059D800C4F58368C6F580643E6BC7F850C01A44A6
:1059E800A6F1020C5E003B6D640073447B610DF10F
:1059F800280E7B6FC7F834E001F1300EC7F82CE0B1
:105A08003C6403EB480E3C6EC7F828E007F6481ED6
:105A1800C7F85CC0AEEB4404396B7C64FC6DD7F806
:105A28008450A3198E193B61BE61796D504404EB13
:105A38004104B96FD7F894300439B9608100F86F20
:105A4800B966910079608100484639604FEA8A0159
:105A580079627A6FA900F9639B46C3F58061D7F82C
:105A68008830FC61396202F62E0407F1E20A194611
:105A780007F1A40353F8215007F58B7205F69C71C2
:105A880051F8043F03F500631B1322F8023F9442C8
:105A9800F6D1D7F888305E0006EB0308D7F89830BF
:105AA8004FEA08184344C7F880303B6F002B00F0DA
:105AB8004D811823CDE90030D7F834807E6CD7F8B3
:105AC800609042464B46D7F88010304601F05CFDA6
