:020000040800F2
:100000000000042039020008490300084D030008DD
:100010008902000889020008890200088902000894
:100020000000000000000000000000005103000874
:100030005503000800000000590300088902000869
:100040008902000889020008890200088902000864
:100050008902000889020008890200088902000854
:100060008902000889020008890200088902000844
:100070008902000889020008890200088902000834
:100080008902000889020008890200088902000824
:100090008902000889020008890200088902000814
:1000A0008902000889020008890200088902000804
:1000B00089020008890200088902000889020008F4
:1000C00089020008890200088902000889020008E4
:1000D00089020008890200088902000889020008D4
:1000E00089020008890200088902000889020008C4
:1000F00089020008890200088902000889020008B4
:1001000089020008890200088902000889020008A3
:100110008902000889020008890200088902000893
:100120008902000889020008890200088902000883
:100130008902000889020008890200088902000873
:100140008902000889020008890200088902000863
:100150008902000889020008890200088902000853
:100160008902000889020008890200088902000843
:100170008902000800000000890200080000000059
:100180008902000889020008890200088902000823
:100190008902000889020008890200088902000813
:1001A0008902000889020008890200088902000803
:1001B0008902000800000000890200088902000886
:1001C0008902000800000000890200088902000876
:1001D00089020008890200088902000889020008D3
:1001E00089020008890200088902000889020008C3
:0801F000000000000000000007
:1001F80010B5054C237833B9044B13B1044800E01B
:1002080000BF0123237010BD100000200000000073
:100218004813000808B5034B1BB10349034800E025
:1002280000BF08BD000000001400002048130008AB
:10023800DFF834D000F0CEF8002103E00B4B5B5818
:10024800435004310A480B4B42189A42F6D30A4AE3
:1002580002E0002342F8043B084B9A42F9D301F02C
:1002680043F800F00FF8FEE700000420D813000858
:1002780000000020100000201000002030000020A6
:10028800FEE7000000B599B000F020F906A8482262
:10029800002101F04DF800231846CDE90133CDE9DE
:1002A8000333059300F096FA00B1FEE702233721E5
:1002B80007224FF480764025042406A80693CDE94A
:1002C8001133CDE91633CDE90965CDE9134115920E
:1002D80000F022FB034600B1FEE70F24032201A829
:1002E8000521CDE903330593CDE9014200F0E2FE93
:1002F80000B1FEE700F04AFA00B1FEE700F058FA54
:1003080000B1FEE700F026F8FEE700BF0B4B82B015
:100318001A6E42F001021A661A6E02F00102009289
:10032800009A9A6D42F080529A659B6D03F0805353
:100338000193019B02B000F091BA00BF0010024087
:10034800704700BFFEE700BF704700BF704700BF9F
:10035800704700BF30B51C4B89B0DA6C08B3012870
:1003680028D042F00102DA64DB6C03F00103029347
:10037800029B01230322154C154954F8204031F8FB
:100388001050204603A9CDE90532CDE9035300F00A
:1003980019F920462946002200F0F2F9002009B098
:1003A80030BD42F00402DA64DB6C03F0040300930E
:1003B800009BDEE742F00202DA64DB6C03F0020322
:1003C8000193019BD5E700BF0010024068130008A5
:1003D80060130008034AD2F8883043F47003C2F867
:1003E8008830704700ED00E0204B20491A6820480B
:1003F800120754BFD3F894301B688A6858BFC3F3F8
:10040800032302F00C0248BFC3F30313082A50F871
:1004180023300DD00C2A0DD0042A09D0134A1548D0
:1004280092681549C2F30312825CD3400B6070478F
:10043800124BF3E7C868CA6800F0030102390129C2
:10044800C2F3031298BF0D4B0132B3FBF2F3074915
:10045800CA68C968C2F3062203FB02F2C1F341630A
:1004680001335B00B2FBF3F3D8E700BF0010024092
:100478008413000874130008000000200024F4000E
:1004880038B50F4B1B780BB9012038BD4FF47A7281
:10049800B2FBF3F30B4A05461068B0FBF3F000F02B
:1004A80079F804460028EFD1072DEDD802462946F1
:1004B8004FF0FF3000F038F8034B20461D6038BD80
:1004C80004000020000000200800002000B50420DF
:1004D80083B000F017F8FFF787FF0020FFF7D0FF81
:1004E80018B1012003B05DF804FB0190FFF70EFF7F
:1004F800019803B05DF804FB014B1868704700BF12
:100508002C0000204FF6FF01064A0002D36800F4D1
:10051800E0600B4043F0BF6343F400330343D36010
:10052800704700BF00ED00E0184B30B4DB68C3F340
:100538000223C3F10705032D03F1030428BF032594
:10054800062C19D94FF0FF34043B9C4022EA0404DE
:100558004FF0FF32AA4021EA020101FA03F22243D6
:1005680052010028D2B20ADB00F1604000F5614078
:1005780080F8002330BC704700242346E8E7044B8A
:1005880000F00F0003441A7630BC704700ED00E01D
:10059800FCEC00E00138B0F1807F0DD230B4E025EA
:1005A80000220721054B064C586084F8235010465A
:1005B80030BC9A60196070470120704710E000E075
:1005C80000ED00E02DE9F04FD1F800E0BEF1000F9A
:1005D80077D088460026DFF8A491012303FA06FCA9
:1005E8001CEA0E0569D00323D8F80410770021F01F
:1005F800100AD8F808200AF1FF34BB40012C6FEA32
:10060800030302FA07F25ED9C4681C402243C260A1
:10061800046801F003021C401346BB402343CF008B
:1006280003604AD50F2226F0030404F1804404F540
:100638003D3406F00303276EDB009A4027EA0202E6
:10064800484FB84217D007F58067B84275D0464F73
:10065800B8426DD0454FB84279D0454FB8427BD0AB
:10066800444FB8426ED0444FB8420CBF0627072704
:1006780007FA03F31A432266EA43D9F88030CC0319
:1006880054BF13402B43C9F88030D9F884308F0306
:1006980054BF13402B43C9F88430D9F80030CC023A
:1006A80054BF13402B43C9F80030D9F804308902ED
:1006B80054BF13402B43C9F8043001363EFA06F301
:1006C8008BD1BDE8F08F8468BAF1020F04EA030BFE
:1006D800D8F80C4004FA07F444EA0B048460D0F814
:1006E80004B0C1F300142BEA0C0C04FA06F444EA33
:1006F8000C044460C46804EA030442EA0402C260C9
:1007080086D14FF00F0B4FEAD60C00EB8C0C06F09D
:100718000704DCF82020A4000BFA04FB22EA0B0AE9
:10072800D8F81020A24042EA0A02CCF820206FE74D
:10073800022707FA03F31A439DE7012707FA03F391
:100748001A4398E7052707FA03F31A4393E70327A1
:1007580007FA03F31A438EE7042707FA03F31A4349
:1007680089E700BF0000024200080242000C024272
:1007780000100242001402420018024200F4024033
:100788000AB9816270478161704700BF07490B68E9
:1007980013F0010306D10A6822F00402104308602E
:1007A8001846704701231846704700BF00040340ED
:1007B800034A0020136843F001031360704700BF29
:1007C80000040340024B186800F4C060704700BF83
:1007D800007000401D4A1368116911F4104F2ED0A3
:1007E800D16809042BD403F4C06383422BD032238D
:1007F800116810B421F4C0610843154C10602168D9
:1008080014484909A0FB0101C90903FB01F3124877
:100818005169A0FB030348054FEAD30303F1010321
:1008280005D500E01BB15169013B4905FAD4074BD6
:100838005B695B0505D400205DF8044B7047012017
:1008480070470320F8E70020704700BF00700040A1
:1008580000000020C55A7C0ACDCCCCCC024A936853
:1008680043F480439360704700700040274A9368C0
:10087800D26813F00C0308D00C2B38D0042B244872
:100888003BD0082B18BF00207047204A1168090781
:1008980054BFD2F8942012681E4954BFC2F30322F1
:1008A800C2F3031251F8220003B30C2B1DD11749D0
:1008B800CA68CB6802F00302C3F30313022A03F1E8
:1008C800010301D0032A19D11148CA68B0FBF3F01B
:1008D800C2F3062300FB03F00C4BDB68C3F3416350
:1008E80001335B00B0FBF3F070470020704702F063
:1008F8000302012AC9D00020D9E77047B0FBF3F002
:10090800CB68C3F3062300FB03F0E5E700100240C1
:100918000024F40084130008002800F0E2812DE987
:10092800F041AF4A03689568D668DA0684B0044691
:1009380005F00C0506F003062FD5002D00F05781B1
:100948000C2D00F05181E369002B00F0B481A44B19
:100958001A681F4642F001021A60FFF7CDFD804673
:1009680006E0FFF7C9FDA0EB0800022800F2B581F8
:100978003B689A07F5D53B6843F008033B603B6842
:10098800626A23F0F00313433B607B68226A23F416
:100998007F4343EA02237B602368D80700F1F6808F
:1009A8009F0724D5042D00F076810C2D00F070816E
:1009B800E368002B00F0AD81894B1A681E4642F4AB
:1009C80080721A60FFF798FD054605E0FFF794FD71
:1009D800401B022800F2818133685805F6D57368F8
:1009E800226923F0FE4343EA0263736023681A070F
:1009F80025D56369002B00F0A781A369784A002BED
:100A080040F09B81D2F8943023F01003C2F8943060
:100A1800734BD3F894201D4642F00102C3F894208A
:100A2800FFF76AFD064605E0FFF766FD801B07280D
:100A380000F25381D5F894309B07F5D523685D07FC
:100A480059D5674B9A6DD00000F1618101269A6DE6
:100A580042F080529A659B6D03F080530193019B8D
:100A6800604B1A68D10540F16182A368DA0740F14A
:100A78008181580740F11082594BD3F8902042F0F9
:100A88000402C3F89020D3F8902042F00102C3F882
:100A98009020FFF731FDDFF84881074641F288359D
:100AA80005E0FFF729FDC01BA84200F21681D8F81F
:100AB80090309907F5D5A368494D13F0800FD8F801
:100AC800903000F0958243F08003C8F8903041F2EE
:100AD800883805E0FFF710FDC01B404500F2FD8097
:100AE800D5F890301A05F5D526B13D4A936D23F017
:100AF8008053936523689B0619D5A36A002B00F0E1
:100B0800B481374BD3F898201D4642F00102C3F850
:100B18009820FFF7F1FC064605E0FFF7EDFC801B87
:100B2800022800F2DA80D5F898309F07F5D5E06AF8
:100B380050B32B4B9A6802F00C020C2A00F0C281C9
:100B480002281A6800F0668222F080721A601A6819
:100B580012F0205F03D1DA6822F00302DA60204A3B
:100B6800D368144623F0887323F48033D360FFF7E7
:100B7800C3FC054605E0FFF7BFFC401B022800F256
:100B8800AC8023689B01F6D4002072E0082D75D054
:100B98000C2D71D06368B3F5803F00F0A480B3F5E5
:100BA800A02F00F0FF810E4F3A6822F480323A609D
:100BB8003A6822F480223A60002B40F09980FFF7CF
:100BC8009BFC804606E0FFF797FCA0EB0800642832
:100BD80000F283803B689B03F5D42368E0E600BFFE
:100BE8000010024000700040012E7FF4ACAEB04B04
:100BF8001B689B0739D4AE4BD4F824801A681707B2
:100C080056BFD3F894301B681B0903F0F0039845CE
:100C1800A74F00F2EA803B6843F008033B603B685B
:100C280023F0F00343EA08033B607B68226A23F45D
:100C38007F4343EA02237B60002D00F08981FFF7A0
:100C480015FE9B4B9B4A9B689B49C3F30313D35CDC
:100C58009A4A20FA03F308681360FFF711FC40B9B9
:100C68002368D8077FF59CAE90E7E369002BC2D1D3
:100C7800012004B0BDE8F081032E8BD18C4A1268A4
:100C880091037FF58DAE6268002A7FF489AEEFE7A5
:100C9800022E7FF48DAE864A1268550502D5E268A9
:100CA800002AE5D0824920694A6822F0FE4242EAD9
:100CB80000624A609BE67E4B1A68984622F0010261
:100CC8001A60FFF719FC0746D8F800309B07C7D50C
:100CD800FFF712FCC01B0228F6D9032004B0BDE8B8
:100CE800F08101207047724A136843F4803313601F
:100CF800FFF702FC6E4F804605E0FFF7FDFBA0EB17
:100D080008006428E9D83B689A03F6D565E7002609
:100D1800A6E6674B1A681D4622F480721A60FFF730
:100D2800EBFB064604E0FFF7E7FB801B0228D4D85C
:100D38002B685905F7D4236859E6D2F8943043F064
:100D48001003C2F8943063E6594BD3F894201D463B
:100D580022F00102C3F89420FFF7CEFB064604E018
:100D6800FFF7CAFB801B0728B7D8D5F894309F0730
:100D7800F6D463E64E4DD5F8902022F00102C5F86E
:100D88009020D5F8902022F00402C5F89020002B7E
:100D98007FF47FAEFFF7B0FB41F28837804605E06D
:100DA800FFF7AAFBA0EB0800B84296D8D5F8903018
:100DB8009807F5D4D5F8903019067FF595AED5F893
:100DC80090303B4F23F08003C5F8903041F28835CE
:100DD80006E0FFF791FBA0EB0800A8423FF67DAFC5
:100DE800D7F890301A05F4D47EE6BB6DD8005BD4F2
:100DF800BB6D43F08053BB65BB6D03F0805302931A
:100E0800029BFFF7DFFCBB6D23F08053BB6530F41A
:100E1800007000F0BD80B8F1800F00F23D8100F055
:100E28003F81A8F17000B0FA80F04009244A1368A5
:100E380023F00F0303431360136803F00F03984272
:100E48007FF416AF1A4B1A6842F008021A601A6843
:100E5800616A22F0F0020A431A605A68216A22F491
:100E68007F4242EA01225A60E9E6114BD3F8982002
:100E78001D4622F00102C3F89820FFF73DFB064605
:100E880005E0FFF739FB801B02283FF626AFD5F8AF
:100E980098309807F5D44AE6054AD2F8903043F0DE
:100EA8000103C2F89030F4E5FFF78CFCAFE700BF10
:100EB8000010024074130008080000200000002001
:100EC8000020024001283FF4D4AEDB68226B03F017
:100ED800030191427FF4CCAE616B03F0F00201395B
:100EE800B2EB011F7FF4C4AEA16B03F4FE42B2EB78
:100EF800012F7FF4BDAEE16B03F07842B2EBC16F16
:100F08007FF4B6AE226C03F4C0015208013AB1EB8B
:100F1800425F7FF4ADAE626C03F0C0635208013AE1
:100F2800B3EB426F14BF01200020A2E61A681D46E9
:100F380042F480721A60FFF7DFFA07462B68DB0578
:100F48003FF593ADFFF7D8FAC01B0228F6D9C4E6DF
:100F5800BB6DD9003CD5FFF735FC30F400702ED0BE
:100F6800B8F1800F00F29A8000F09C80A8F1700020
:100F7800B0FA80F040094C4A136823F00F0303438A
:100F88001360136803F00F0398427FF471AE56E6BE
:100F9800B8F1800F7FF64AAFB8F1A10F34BF012036
:100FA800022043E703F18043A3F53C331A6842F477
:100FB80080221A601A6842F480321A6098E6B8F102
:100FC800800FD8D9B8F1A10F34BF01200220D2E791
:100FD800BB6D43F08053BB65BB6D03F08053039337
:100FE800039BFFF7EFFBBB6D23F08053BB65B4E7B2
:100FF80023F08003C8F8903041F2883805E0FFF705
:101008007BFAC01B40453FF668AED5F890301B050B
:10101800F5D469E522F080721A601D46FFF76CFA74
:10102800064605E0FFF768FA801B02283FF655AE32
:101038002B689901F6D4EA681C4B216B1340A26B0C
:10104800E66B606B0B4343EA02230138D4E91012C4
:1010580043EAC663490843EA00130139520843EAE0
:101068004153013A43EA4263EB602B68104C43F06A
:1010780080732B60EB6843F08073EB60FFF73CFAFA
:10108800054605E0FFF738FA401B02283FF625AE73
:1010980023689A01F6D577E50320C7E603206AE7B7
:1010A8000220C3E6022066E7002002400C809F0170
:1010B80000100240002800F0D580834A2DE9F8434B
:1010C800136803F00F038B420CD2136823F00F034D
:1010D8000B431360136803F00F038B4202D0012007
:1010E800BDE8F88303680446DA070D466DD5426803
:1010F800032A7AD0754B022A1B6800F0B580002AB3
:1011080040F0B6809E07EAD5FFF7B0FB704B9842D7
:1011180000F2B2804FF0000862686C4E41F28839E4
:10112800B36823F003031A43B260FFF7E5F90746F3
:1011380005E0FFF7E1F9C01B484500F2A880B36855
:10114800626803F00C03B3EB820FF2D123689907AE
:101158003DD4B8F1800F03D1B26822F0F002B2603A
:1011680059490A6802F00F02AA4209D90A6822F00E
:101178000F022A430A600A6802F00F02AA42AED19F
:101188005A0706D55149E0688A6822F4E0620243AA
:101198008A601B0707D54D4A2169936823F4605379
:1011A80043EAC1039360FFF761FB484B494A9B68D8
:1011B8004949C3F30313D35C484A20FA03F3136085
:1011C8000868BDE8F843FFF75BB99F07C8D53F49F2
:1011D800A0688A6822F0F00202438A603A490A68E5
:1011E80002F00F02AA42C1D8CAE738490868860146
:1011F8007FF575AFC86800F00300012855D00021BD
:10120800324FFE68F86806F00306C0F30310022E9A
:1012180000F101003DD0032E3BD0B1FBF0F1F8689E
:10122800C0F3062001FB00F1284E294FF068C0F3F7
:10123800416001304000B1FBF0F1B94232D9B168E8
:1012480011F0F00F05D013F002083FF466AFA36861
:1012580043BB4FF08008B36823F0F00343EA080368
:10126800B3605AE7012070479F033FF54DAF36E75B
:1012780058057FF534AF47E74FF08008134A936865
:1012880023F0F00343EA08039360626845E703200C
:1012980026E71349FE68B1FBF0F1C6F3062001FB0F
:1012A80000F1C1E74FF0000837E70868000754BFAE
:1012B800D1F8941009680B4854BFC1F30321C1F356
:1012C800031150F821109BE7002002400010024053
:1012D80000B4C404741300080800002000000020B3
:1012E8000024F4008413000870B50D4E00250D4C41
:1012F800A41BA410A54209D10B4E00250B4C00F0ED
:101308001FF8A41BA410A54205D170BD56F82530BE
:1013180001359847EEE756F8253001359847F2E74A
:10132800C8130008C8130008C8130008CC13000825
:1013380002440346934200D1704703F8011BF9E7C2
:10134800F8B500BFF8BC08BC9E467047F8B500BFAA
:08135800F8BC08BC9E4670477A
:1013600080008000000200000008024200040242E7
:10137000000002420000000000000000010203041F
:1013800006070809A0860100400D0300801A060028
:1013900000350C0040420F0080841E0000093D0013
:1013A00000127A000024F40000366E010048E801C3
:1013B000006CDC02000000000000000000000000E3
:0813C000000000000000000025
:0813C8001D02000800000000F6
:0813D000F90100080000000013
:1013D80000093D00010000000800000000000000B6
:0400000508000239B4
:00000001FF
